{
	"contracts/4_project.sol": {
		"local": {
			"abi": [
				{
					"inputs": [],
					"stateMutability": "nonpayable",
					"type": "constructor"
				},
				{
					"inputs": [],
					"name": "get_balance",
					"outputs": [
						{
							"internalType": "uint256",
							"name": "",
							"type": "uint256"
						}
					],
					"stateMutability": "view",
					"type": "function"
				},
				{
					"inputs": [
						{
							"internalType": "address",
							"name": "_user_address",
							"type": "address"
						},
						{
							"internalType": "string",
							"name": "_password",
							"type": "string"
						}
					],
					"name": "login",
					"outputs": [],
					"stateMutability": "nonpayable",
					"type": "function"
				},
				{
					"inputs": [
						{
							"internalType": "uint256",
							"name": "",
							"type": "uint256"
						}
					],
					"name": "no_of_products",
					"outputs": [
						{
							"internalType": "string",
							"name": "name",
							"type": "string"
						},
						{
							"internalType": "string",
							"name": "name_of_company",
							"type": "string"
						},
						{
							"internalType": "address payable",
							"name": "company_owner",
							"type": "address"
						},
						{
							"internalType": "uint256",
							"name": "expiry",
							"type": "uint256"
						},
						{
							"internalType": "bool",
							"name": "expiry_status",
							"type": "bool"
						},
						{
							"internalType": "uint256",
							"name": "uuid",
							"type": "uint256"
						},
						{
							"internalType": "uint256",
							"name": "cost",
							"type": "uint256"
						},
						{
							"internalType": "bool",
							"name": "sold",
							"type": "bool"
						}
					],
					"stateMutability": "view",
					"type": "function"
				},
				{
					"inputs": [],
					"name": "pay_for_product",
					"outputs": [],
					"stateMutability": "payable",
					"type": "function"
				},
				{
					"inputs": [
						{
							"internalType": "string",
							"name": "_name",
							"type": "string"
						},
						{
							"internalType": "string",
							"name": "_name_of_company",
							"type": "string"
						},
						{
							"internalType": "address payable",
							"name": "_company_owner",
							"type": "address"
						},
						{
							"internalType": "uint256",
							"name": "_expiry",
							"type": "uint256"
						},
						{
							"internalType": "uint256",
							"name": "_uuid",
							"type": "uint256"
						},
						{
							"internalType": "uint256",
							"name": "_cost",
							"type": "uint256"
						}
					],
					"name": "register",
					"outputs": [],
					"stateMutability": "payable",
					"type": "function"
				},
				{
					"inputs": [],
					"name": "remove_eth",
					"outputs": [],
					"stateMutability": "nonpayable",
					"type": "function"
				},
				{
					"inputs": [],
					"name": "scan_qr",
					"outputs": [
						{
							"internalType": "uint256",
							"name": "",
							"type": "uint256"
						}
					],
					"stateMutability": "view",
					"type": "function"
				},
				{
					"inputs": [
						{
							"internalType": "address",
							"name": "_user_address",
							"type": "address"
						},
						{
							"internalType": "string",
							"name": "_name",
							"type": "string"
						},
						{
							"internalType": "string",
							"name": "_password",
							"type": "string"
						}
					],
					"name": "sign_in",
					"outputs": [],
					"stateMutability": "nonpayable",
					"type": "function"
				}
			],
			"devdoc": {
				"kind": "dev",
				"methods": {},
				"version": 1
			},
			"evm": {
				"assembly": "    /* \"contracts/4_project.sol\":71:3731  contract local{... */\n  mstore(0x40, 0x80)\n    /* \"contracts/4_project.sol\":788:789  0 */\n  0x00\n    /* \"contracts/4_project.sol\":771:789  uint nth_product=0 */\n  0x02\n  sstore\n    /* \"contracts/4_project.sol\":1720:1725  false */\n  0x00\n    /* \"contracts/4_project.sol\":1699:1725  bool status_of_login=false */\n  0x05\n  exp(0x0100, 0x00)\n  dup2\n  sload\n  dup2\n  0xff\n  mul\n  not\n  and\n  swap1\n  dup4\n  iszero\n  iszero\n  mul\n  or\n  swap1\n  sstore\n  pop\n    /* \"contracts/4_project.sol\":108:155  constructor (){... */\n  callvalue\n  dup1\n  iszero\n  tag_1\n  jumpi\n  0x00\n  dup1\n  revert\ntag_1:\n  pop\n    /* \"contracts/4_project.sol\":139:149  msg.sender */\n  caller\n    /* \"contracts/4_project.sol\":131:136  owner */\n  0x00\n  dup1\n    /* \"contracts/4_project.sol\":131:149  owner = msg.sender */\n  0x0100\n  exp\n  dup2\n  sload\n  dup2\n  0xffffffffffffffffffffffffffffffffffffffff\n  mul\n  not\n  and\n  swap1\n  dup4\n  0xffffffffffffffffffffffffffffffffffffffff\n  and\n  mul\n  or\n  swap1\n  sstore\n  pop\n    /* \"contracts/4_project.sol\":71:3731  contract local{... */\n  dataSize(sub_0)\n  dup1\n  dataOffset(sub_0)\n  0x00\n  codecopy\n  0x00\n  return\nstop\n\nsub_0: assembly {\n        /* \"contracts/4_project.sol\":71:3731  contract local{... */\n      mstore(0x40, 0x80)\n      jumpi(tag_1, lt(calldatasize, 0x04))\n      shr(0xe0, calldataload(0x00))\n      dup1\n      0x6dd7edf1\n      gt\n      tag_10\n      jumpi\n      dup1\n      0x6dd7edf1\n      eq\n      tag_6\n      jumpi\n      dup1\n      0x7ab8d98e\n      eq\n      tag_7\n      jumpi\n      dup1\n      0x9344d6a7\n      eq\n      tag_8\n      jumpi\n      dup1\n      0xc1cfb99a\n      eq\n      tag_9\n      jumpi\n      jump(tag_1)\n    tag_10:\n      dup1\n      0x0ac0b7b9\n      eq\n      tag_2\n      jumpi\n      dup1\n      0x2f19d50b\n      eq\n      tag_3\n      jumpi\n      dup1\n      0x50257e1f\n      eq\n      tag_4\n      jumpi\n      dup1\n      0x57eb8211\n      eq\n      tag_5\n      jumpi\n    tag_1:\n      0x00\n      dup1\n      revert\n        /* \"contracts/4_project.sol\":3140:3686  function pay_for_product() payable public  {     //The nth product ka paramter frontend se directly ayega... */\n    tag_2:\n      tag_11\n      tag_12\n      jump\t// in\n    tag_11:\n      stop\n        /* \"contracts/4_project.sol\":2166:2569  function login(address _user_address,string memory _password)public {... */\n    tag_3:\n      callvalue\n      dup1\n      iszero\n      tag_13\n      jumpi\n      0x00\n      dup1\n      revert\n    tag_13:\n      pop\n      tag_14\n      0x04\n      dup1\n      calldatasize\n      sub\n      dup2\n      add\n      swap1\n      tag_15\n      swap2\n      swap1\n      tag_16\n      jump\t// in\n    tag_15:\n      tag_17\n      jump\t// in\n    tag_14:\n      stop\n        /* \"contracts/4_project.sol\":826:1357  function register(string memory _name, string memory _name_of_company,address payable  _company_owner,uint _expiry,uint _uuid, uint _cost)public payable  {... */\n    tag_4:\n      tag_18\n      0x04\n      dup1\n      calldatasize\n      sub\n      dup2\n      add\n      swap1\n      tag_19\n      swap2\n      swap1\n      tag_20\n      jump\t// in\n    tag_19:\n      tag_21\n      jump\t// in\n    tag_18:\n      stop\n        /* \"contracts/4_project.sol\":2589:3060  function scan_qr() public view returns(uint){... */\n    tag_5:\n      callvalue\n      dup1\n      iszero\n      tag_22\n      jumpi\n      0x00\n      dup1\n      revert\n    tag_22:\n      pop\n      tag_23\n      tag_24\n      jump\t// in\n    tag_23:\n      mload(0x40)\n      tag_25\n      swap2\n      swap1\n      tag_26\n      jump\t// in\n    tag_25:\n      mload(0x40)\n      dup1\n      swap2\n      sub\n      swap1\n      return\n        /* \"contracts/4_project.sol\":723:768  mapping (uint=>Product) public no_of_products */\n    tag_6:\n      callvalue\n      dup1\n      iszero\n      tag_27\n      jumpi\n      0x00\n      dup1\n      revert\n    tag_27:\n      pop\n      tag_28\n      0x04\n      dup1\n      calldatasize\n      sub\n      dup2\n      add\n      swap1\n      tag_29\n      swap2\n      swap1\n      tag_30\n      jump\t// in\n    tag_29:\n      tag_31\n      jump\t// in\n    tag_28:\n      mload(0x40)\n      tag_32\n      swap9\n      swap8\n      swap7\n      swap6\n      swap5\n      swap4\n      swap3\n      swap2\n      swap1\n      tag_33\n      jump\t// in\n    tag_32:\n      mload(0x40)\n      dup1\n      swap2\n      sub\n      swap1\n      return\n        /* \"contracts/4_project.sol\":337:488  function remove_eth() public {... */\n    tag_7:\n      callvalue\n      dup1\n      iszero\n      tag_34\n      jumpi\n      0x00\n      dup1\n      revert\n    tag_34:\n      pop\n      tag_35\n      tag_36\n      jump\t// in\n    tag_35:\n      stop\n        /* \"contracts/4_project.sol\":1841:2149  function sign_in(address _user_address, string memory _name, string memory _password) public {... */\n    tag_8:\n      callvalue\n      dup1\n      iszero\n      tag_37\n      jumpi\n      0x00\n      dup1\n      revert\n    tag_37:\n      pop\n      tag_38\n      0x04\n      dup1\n      calldatasize\n      sub\n      dup2\n      add\n      swap1\n      tag_39\n      swap2\n      swap1\n      tag_40\n      jump\t// in\n    tag_39:\n      tag_41\n      jump\t// in\n    tag_38:\n      stop\n        /* \"contracts/4_project.sol\":197:284  function get_balance() public view returns(uint){... */\n    tag_9:\n      callvalue\n      dup1\n      iszero\n      tag_42\n      jumpi\n      0x00\n      dup1\n      revert\n    tag_42:\n      pop\n      tag_43\n      tag_44\n      jump\t// in\n    tag_43:\n      mload(0x40)\n      tag_45\n      swap2\n      swap1\n      tag_26\n      jump\t// in\n    tag_45:\n      mload(0x40)\n      dup1\n      swap2\n      sub\n      swap1\n      return\n        /* \"contracts/4_project.sol\":3140:3686  function pay_for_product() payable public  {     //The nth product ka paramter frontend se directly ayega... */\n    tag_12:\n        /* \"contracts/4_project.sol\":3276:3280  true */\n      0x01\n        /* \"contracts/4_project.sol\":3257:3280  status_of_login == true */\n      iszero\n      iszero\n        /* \"contracts/4_project.sol\":3257:3272  status_of_login */\n      0x05\n      0x00\n      swap1\n      sload\n      swap1\n      0x0100\n      exp\n      swap1\n      div\n      0xff\n      and\n        /* \"contracts/4_project.sol\":3257:3280  status_of_login == true */\n      iszero\n      iszero\n      eq\n        /* \"contracts/4_project.sol\":3249:3281  require(status_of_login == true) */\n      tag_47\n      jumpi\n      0x00\n      dup1\n      revert\n    tag_47:\n        /* \"contracts/4_project.sol\":3292:3320  Product storage this_product */\n      0x00\n        /* \"contracts/4_project.sol\":3323:3337  no_of_products */\n      0x01\n        /* \"contracts/4_project.sol\":3323:3348  no_of_products[scan_qr()] */\n      0x00\n        /* \"contracts/4_project.sol\":3338:3347  scan_qr() */\n      tag_48\n        /* \"contracts/4_project.sol\":3338:3345  scan_qr */\n      tag_24\n        /* \"contracts/4_project.sol\":3338:3347  scan_qr() */\n      jump\t// in\n    tag_48:\n        /* \"contracts/4_project.sol\":3323:3348  no_of_products[scan_qr()] */\n      dup2\n      mstore\n      0x20\n      add\n      swap1\n      dup2\n      mstore\n      0x20\n      add\n      0x00\n      keccak256\n        /* \"contracts/4_project.sol\":3292:3348  Product storage this_product = no_of_products[scan_qr()] */\n      swap1\n      pop\n        /* \"contracts/4_project.sol\":3460:3465  false */\n      0x00\n        /* \"contracts/4_project.sol\":3441:3465  this_product.sold==false */\n      iszero\n      iszero\n        /* \"contracts/4_project.sol\":3441:3453  this_product */\n      dup2\n        /* \"contracts/4_project.sol\":3441:3458  this_product.sold */\n      0x07\n      add\n      0x00\n      swap1\n      sload\n      swap1\n      0x0100\n      exp\n      swap1\n      div\n      0xff\n      and\n        /* \"contracts/4_project.sol\":3441:3465  this_product.sold==false */\n      iszero\n      iszero\n      eq\n        /* \"contracts/4_project.sol\":3433:3497  require(this_product.sold==false,\"This product is already sold\") */\n      tag_49\n      jumpi\n      mload(0x40)\n      0x08c379a000000000000000000000000000000000000000000000000000000000\n      dup2\n      mstore\n      0x04\n      add\n      tag_50\n      swap1\n      tag_51\n      jump\t// in\n    tag_50:\n      mload(0x40)\n      dup1\n      swap2\n      sub\n      swap1\n      revert\n    tag_49:\n        /* \"contracts/4_project.sol\":3525:3537  this_product */\n      dup1\n        /* \"contracts/4_project.sol\":3525:3542  this_product.cost */\n      0x06\n      add\n      sload\n        /* \"contracts/4_project.sol\":3512:3521  msg.value */\n      callvalue\n        /* \"contracts/4_project.sol\":3512:3542  msg.value == this_product.cost */\n      eq\n        /* \"contracts/4_project.sol\":3504:3543  require(msg.value == this_product.cost) */\n      tag_52\n      jumpi\n      0x00\n      dup1\n      revert\n    tag_52:\n        /* \"contracts/4_project.sol\":3570:3574  true */\n      0x01\n        /* \"contracts/4_project.sol\":3550:3562  this_product */\n      dup2\n        /* \"contracts/4_project.sol\":3550:3567  this_product.sold */\n      0x07\n      add\n      0x00\n        /* \"contracts/4_project.sol\":3550:3574  this_product.sold = true */\n      0x0100\n      exp\n      dup2\n      sload\n      dup2\n      0xff\n      mul\n      not\n      and\n      swap1\n      dup4\n      iszero\n      iszero\n      mul\n      or\n      swap1\n      sstore\n      pop\n        /* \"contracts/4_project.sol\":3583:3595  this_product */\n      dup1\n        /* \"contracts/4_project.sol\":3583:3609  this_product.company_owner */\n      0x02\n      add\n      0x00\n      swap1\n      sload\n      swap1\n      0x0100\n      exp\n      swap1\n      div\n      0xffffffffffffffffffffffffffffffffffffffff\n      and\n        /* \"contracts/4_project.sol\":3583:3618  this_product.company_owner.transfer */\n      0xffffffffffffffffffffffffffffffffffffffff\n      and\n        /* \"contracts/4_project.sol\":3583:3637  this_product.company_owner.transfer(this_product.cost) */\n      0x08fc\n        /* \"contracts/4_project.sol\":3619:3631  this_product */\n      dup3\n        /* \"contracts/4_project.sol\":3619:3636  this_product.cost */\n      0x06\n      add\n      sload\n        /* \"contracts/4_project.sol\":3583:3637  this_product.company_owner.transfer(this_product.cost) */\n      swap1\n      dup2\n      iszero\n      mul\n      swap1\n      mload(0x40)\n      0x00\n      mload(0x40)\n      dup1\n      dup4\n      sub\n      dup2\n      dup6\n      dup9\n      dup9\n      call\n      swap4\n      pop\n      pop\n      pop\n      pop\n      iszero\n      dup1\n      iszero\n      tag_54\n      jumpi\n      returndatasize\n      0x00\n      dup1\n      returndatacopy\n      revert(0x00, returndatasize)\n    tag_54:\n      pop\n        /* \"contracts/4_project.sol\":3183:3686  {     //The nth product ka paramter frontend se directly ayega... */\n      pop\n        /* \"contracts/4_project.sol\":3140:3686  function pay_for_product() payable public  {     //The nth product ka paramter frontend se directly ayega... */\n      jump\t// out\n        /* \"contracts/4_project.sol\":2166:2569  function login(address _user_address,string memory _password)public {... */\n    tag_17:\n        /* \"contracts/4_project.sol\":2397:2420  Users storage this_user */\n      0x00\n        /* \"contracts/4_project.sol\":2423:2434  no_of_users */\n      0x03\n        /* \"contracts/4_project.sol\":2423:2444  no_of_users[nth_user] */\n      0x00\n        /* \"contracts/4_project.sol\":2435:2443  nth_user */\n      sload(0x04)\n        /* \"contracts/4_project.sol\":2423:2444  no_of_users[nth_user] */\n      dup2\n      mstore\n      0x20\n      add\n      swap1\n      dup2\n      mstore\n      0x20\n      add\n      0x00\n      keccak256\n        /* \"contracts/4_project.sol\":2397:2444  Users storage this_user = no_of_users[nth_user] */\n      swap1\n      pop\n        /* \"contracts/4_project.sol\":2476:2489  _user_address */\n      dup3\n        /* \"contracts/4_project.sol\":2451:2460  this_user */\n      dup2\n        /* \"contracts/4_project.sol\":2451:2473  this_user.user_address */\n      0x00\n      add\n      0x00\n        /* \"contracts/4_project.sol\":2451:2489  this_user.user_address = _user_address */\n      0x0100\n      exp\n      dup2\n      sload\n      dup2\n      0xffffffffffffffffffffffffffffffffffffffff\n      mul\n      not\n      and\n      swap1\n      dup4\n      0xffffffffffffffffffffffffffffffffffffffff\n      and\n      mul\n      or\n      swap1\n      sstore\n      pop\n        /* \"contracts/4_project.sol\":2517:2526  _password */\n      dup2\n        /* \"contracts/4_project.sol\":2496:2505  this_user */\n      dup2\n        /* \"contracts/4_project.sol\":2496:2514  this_user.password */\n      0x02\n      add\n        /* \"contracts/4_project.sol\":2496:2526  this_user.password = _password */\n      swap1\n      dup2\n      tag_56\n      swap2\n      swap1\n      tag_57\n      jump\t// in\n    tag_56:\n      pop\n        /* \"contracts/4_project.sol\":2555:2559  true */\n      0x01\n        /* \"contracts/4_project.sol\":2537:2552  status_of_login */\n      0x05\n      0x00\n        /* \"contracts/4_project.sol\":2537:2559  status_of_login = true */\n      0x0100\n      exp\n      dup2\n      sload\n      dup2\n      0xff\n      mul\n      not\n      and\n      swap1\n      dup4\n      iszero\n      iszero\n      mul\n      or\n      swap1\n      sstore\n      pop\n        /* \"contracts/4_project.sol\":2234:2569  {... */\n      pop\n        /* \"contracts/4_project.sol\":2166:2569  function login(address _user_address,string memory _password)public {... */\n      pop\n      pop\n      jump\t// out\n        /* \"contracts/4_project.sol\":826:1357  function register(string memory _name, string memory _name_of_company,address payable  _company_owner,uint _expiry,uint _uuid, uint _cost)public payable  {... */\n    tag_21:\n        /* \"contracts/4_project.sol\":987:1013  Product storage newproduct */\n      0x00\n        /* \"contracts/4_project.sol\":1016:1030  no_of_products */\n      0x01\n        /* \"contracts/4_project.sol\":1016:1043  no_of_products[nth_product] */\n      0x00\n        /* \"contracts/4_project.sol\":1031:1042  nth_product */\n      sload(0x02)\n        /* \"contracts/4_project.sol\":1016:1043  no_of_products[nth_product] */\n      dup2\n      mstore\n      0x20\n      add\n      swap1\n      dup2\n      mstore\n      0x20\n      add\n      0x00\n      keccak256\n        /* \"contracts/4_project.sol\":987:1043  Product storage newproduct = no_of_products[nth_product] */\n      swap1\n      pop\n        /* \"contracts/4_project.sol\":1046:1057  nth_product */\n      0x02\n      0x00\n        /* \"contracts/4_project.sol\":1046:1059  nth_product++ */\n      dup2\n      sload\n      dup1\n      swap3\n      swap2\n      swap1\n      tag_59\n      swap1\n      tag_60\n      jump\t// in\n    tag_59:\n      swap2\n      swap1\n      pop\n      sstore\n      pop\n        /* \"contracts/4_project.sol\":1082:1087  _name */\n      dup7\n        /* \"contracts/4_project.sol\":1064:1074  newproduct */\n      dup2\n        /* \"contracts/4_project.sol\":1064:1079  newproduct.name */\n      0x00\n      add\n        /* \"contracts/4_project.sol\":1064:1087  newproduct.name = _name */\n      swap1\n      dup2\n      tag_61\n      swap2\n      swap1\n      tag_57\n      jump\t// in\n    tag_61:\n      pop\n        /* \"contracts/4_project.sol\":1119:1135  _name_of_company */\n      dup6\n        /* \"contracts/4_project.sol\":1090:1100  newproduct */\n      dup2\n        /* \"contracts/4_project.sol\":1090:1116  newproduct.name_of_company */\n      0x01\n      add\n        /* \"contracts/4_project.sol\":1090:1135  newproduct.name_of_company = _name_of_company */\n      swap1\n      dup2\n      tag_62\n      swap2\n      swap1\n      tag_57\n      jump\t// in\n    tag_62:\n      pop\n        /* \"contracts/4_project.sol\":1165:1179  _company_owner */\n      dup5\n        /* \"contracts/4_project.sol\":1138:1148  newproduct */\n      dup2\n        /* \"contracts/4_project.sol\":1138:1162  newproduct.company_owner */\n      0x02\n      add\n      0x00\n        /* \"contracts/4_project.sol\":1138:1179  newproduct.company_owner = _company_owner */\n      0x0100\n      exp\n      dup2\n      sload\n      dup2\n      0xffffffffffffffffffffffffffffffffffffffff\n      mul\n      not\n      and\n      swap1\n      dup4\n      0xffffffffffffffffffffffffffffffffffffffff\n      and\n      mul\n      or\n      swap1\n      sstore\n      pop\n        /* \"contracts/4_project.sol\":1202:1209  _expiry */\n      dup4\n        /* \"contracts/4_project.sol\":1182:1192  newproduct */\n      dup2\n        /* \"contracts/4_project.sol\":1182:1199  newproduct.expiry */\n      0x03\n      add\n        /* \"contracts/4_project.sol\":1182:1209  newproduct.expiry = _expiry */\n      dup2\n      swap1\n      sstore\n      pop\n        /* \"contracts/4_project.sol\":1230:1235  _uuid */\n      dup3\n        /* \"contracts/4_project.sol\":1212:1222  newproduct */\n      dup2\n        /* \"contracts/4_project.sol\":1212:1227  newproduct.uuid */\n      0x05\n      add\n        /* \"contracts/4_project.sol\":1212:1235  newproduct.uuid = _uuid */\n      dup2\n      swap1\n      sstore\n      pop\n        /* \"contracts/4_project.sol\":1256:1261  _cost */\n      dup2\n        /* \"contracts/4_project.sol\":1238:1248  newproduct */\n      dup2\n        /* \"contracts/4_project.sol\":1238:1253  newproduct.cost */\n      0x06\n      add\n        /* \"contracts/4_project.sol\":1238:1261  newproduct.cost = _cost */\n      dup2\n      swap1\n      sstore\n      pop\n        /* \"contracts/4_project.sol\":1298:1301  100 */\n      0x64\n        /* \"contracts/4_project.sol\":1291:1296  _cost */\n      dup3\n        /* \"contracts/4_project.sol\":1288:1289  5 */\n      0x05\n        /* \"contracts/4_project.sol\":1288:1297  5*(_cost) */\n      tag_63\n      swap2\n      swap1\n      tag_64\n      jump\t// in\n    tag_63:\n        /* \"contracts/4_project.sol\":1288:1301  5*(_cost)/100 */\n      tag_65\n      swap2\n      swap1\n      tag_66\n      jump\t// in\n    tag_65:\n        /* \"contracts/4_project.sol\":1274:1283  msg.value */\n      callvalue\n        /* \"contracts/4_project.sol\":1274:1302  msg.value == (5*(_cost)/100) */\n      eq\n        /* \"contracts/4_project.sol\":1266:1349  require(msg.value == (5*(_cost)/100),\"Please pay the only 5% of your product cost\") */\n      tag_67\n      jumpi\n      mload(0x40)\n      0x08c379a000000000000000000000000000000000000000000000000000000000\n      dup2\n      mstore\n      0x04\n      add\n      tag_68\n      swap1\n      tag_69\n      jump\t// in\n    tag_68:\n      mload(0x40)\n      dup1\n      swap2\n      sub\n      swap1\n      revert\n    tag_67:\n        /* \"contracts/4_project.sol\":980:1357  {... */\n      pop\n        /* \"contracts/4_project.sol\":826:1357  function register(string memory _name, string memory _name_of_company,address payable  _company_owner,uint _expiry,uint _uuid, uint _cost)public payable  {... */\n      pop\n      pop\n      pop\n      pop\n      pop\n      pop\n      jump\t// out\n        /* \"contracts/4_project.sol\":2589:3060  function scan_qr() public view returns(uint){... */\n    tag_24:\n        /* \"contracts/4_project.sol\":2628:2632  uint */\n      0x00\n        /* \"contracts/4_project.sol\":2673:2677  true */\n      0x01\n        /* \"contracts/4_project.sol\":2654:2677  status_of_login == true */\n      iszero\n      iszero\n        /* \"contracts/4_project.sol\":2654:2669  status_of_login */\n      0x05\n      0x00\n      swap1\n      sload\n      swap1\n      0x0100\n      exp\n      swap1\n      div\n      0xff\n      and\n        /* \"contracts/4_project.sol\":2654:2677  status_of_login == true */\n      iszero\n      iszero\n      eq\n        /* \"contracts/4_project.sol\":2646:2699  require(status_of_login == true,\"Please login first\") */\n      tag_71\n      jumpi\n      mload(0x40)\n      0x08c379a000000000000000000000000000000000000000000000000000000000\n      dup2\n      mstore\n      0x04\n      add\n      tag_72\n      swap1\n      tag_73\n      jump\t// in\n    tag_72:\n      mload(0x40)\n      dup1\n      swap2\n      sub\n      swap1\n      revert\n    tag_71:\n        /* \"contracts/4_project.sol\":3044:3055  nth_product */\n      sload(0x02)\n        /* \"contracts/4_project.sol\":3036:3056  return (nth_product) */\n      swap1\n      pop\n        /* \"contracts/4_project.sol\":2589:3060  function scan_qr() public view returns(uint){... */\n      swap1\n      jump\t// out\n        /* \"contracts/4_project.sol\":723:768  mapping (uint=>Product) public no_of_products */\n    tag_31:\n      mstore(0x20, 0x01)\n      dup1\n      0x00\n      mstore\n      keccak256(0x00, 0x40)\n      0x00\n      swap2\n      pop\n      swap1\n      pop\n      dup1\n      0x00\n      add\n      dup1\n      sload\n      tag_74\n      swap1\n      tag_75\n      jump\t// in\n    tag_74:\n      dup1\n      0x1f\n      add\n      0x20\n      dup1\n      swap2\n      div\n      mul\n      0x20\n      add\n      mload(0x40)\n      swap1\n      dup2\n      add\n      0x40\n      mstore\n      dup1\n      swap3\n      swap2\n      swap1\n      dup2\n      dup2\n      mstore\n      0x20\n      add\n      dup3\n      dup1\n      sload\n      tag_76\n      swap1\n      tag_75\n      jump\t// in\n    tag_76:\n      dup1\n      iszero\n      tag_77\n      jumpi\n      dup1\n      0x1f\n      lt\n      tag_78\n      jumpi\n      0x0100\n      dup1\n      dup4\n      sload\n      div\n      mul\n      dup4\n      mstore\n      swap2\n      0x20\n      add\n      swap2\n      jump(tag_77)\n    tag_78:\n      dup3\n      add\n      swap2\n      swap1\n      0x00\n      mstore\n      keccak256(0x00, 0x20)\n      swap1\n    tag_79:\n      dup2\n      sload\n      dup2\n      mstore\n      swap1\n      0x01\n      add\n      swap1\n      0x20\n      add\n      dup1\n      dup4\n      gt\n      tag_79\n      jumpi\n      dup3\n      swap1\n      sub\n      0x1f\n      and\n      dup3\n      add\n      swap2\n    tag_77:\n      pop\n      pop\n      pop\n      pop\n      pop\n      swap1\n      dup1\n      0x01\n      add\n      dup1\n      sload\n      tag_80\n      swap1\n      tag_75\n      jump\t// in\n    tag_80:\n      dup1\n      0x1f\n      add\n      0x20\n      dup1\n      swap2\n      div\n      mul\n      0x20\n      add\n      mload(0x40)\n      swap1\n      dup2\n      add\n      0x40\n      mstore\n      dup1\n      swap3\n      swap2\n      swap1\n      dup2\n      dup2\n      mstore\n      0x20\n      add\n      dup3\n      dup1\n      sload\n      tag_81\n      swap1\n      tag_75\n      jump\t// in\n    tag_81:\n      dup1\n      iszero\n      tag_82\n      jumpi\n      dup1\n      0x1f\n      lt\n      tag_83\n      jumpi\n      0x0100\n      dup1\n      dup4\n      sload\n      div\n      mul\n      dup4\n      mstore\n      swap2\n      0x20\n      add\n      swap2\n      jump(tag_82)\n    tag_83:\n      dup3\n      add\n      swap2\n      swap1\n      0x00\n      mstore\n      keccak256(0x00, 0x20)\n      swap1\n    tag_84:\n      dup2\n      sload\n      dup2\n      mstore\n      swap1\n      0x01\n      add\n      swap1\n      0x20\n      add\n      dup1\n      dup4\n      gt\n      tag_84\n      jumpi\n      dup3\n      swap1\n      sub\n      0x1f\n      and\n      dup3\n      add\n      swap2\n    tag_82:\n      pop\n      pop\n      pop\n      pop\n      pop\n      swap1\n      dup1\n      0x02\n      add\n      0x00\n      swap1\n      sload\n      swap1\n      0x0100\n      exp\n      swap1\n      div\n      0xffffffffffffffffffffffffffffffffffffffff\n      and\n      swap1\n      dup1\n      0x03\n      add\n      sload\n      swap1\n      dup1\n      0x04\n      add\n      0x00\n      swap1\n      sload\n      swap1\n      0x0100\n      exp\n      swap1\n      div\n      0xff\n      and\n      swap1\n      dup1\n      0x05\n      add\n      sload\n      swap1\n      dup1\n      0x06\n      add\n      sload\n      swap1\n      dup1\n      0x07\n      add\n      0x00\n      swap1\n      sload\n      swap1\n      0x0100\n      exp\n      swap1\n      div\n      0xff\n      and\n      swap1\n      pop\n      dup9\n      jump\t// out\n        /* \"contracts/4_project.sol\":337:488  function remove_eth() public {... */\n    tag_36:\n        /* \"contracts/4_project.sol\":393:398  owner */\n      0x00\n      dup1\n      sload\n      swap1\n      0x0100\n      exp\n      swap1\n      div\n      0xffffffffffffffffffffffffffffffffffffffff\n      and\n        /* \"contracts/4_project.sol\":381:398  msg.sender==owner */\n      0xffffffffffffffffffffffffffffffffffffffff\n      and\n        /* \"contracts/4_project.sol\":381:391  msg.sender */\n      caller\n        /* \"contracts/4_project.sol\":381:398  msg.sender==owner */\n      0xffffffffffffffffffffffffffffffffffffffff\n      and\n      eq\n        /* \"contracts/4_project.sol\":373:399  require(msg.sender==owner) */\n      tag_86\n      jumpi\n      0x00\n      dup1\n      revert\n    tag_86:\n        /* \"contracts/4_project.sol\":408:429  address payable  user */\n      0x00\n        /* \"contracts/4_project.sol\":441:446  owner */\n      dup1\n      0x00\n      swap1\n      sload\n      swap1\n      0x0100\n      exp\n      swap1\n      div\n      0xffffffffffffffffffffffffffffffffffffffff\n      and\n        /* \"contracts/4_project.sol\":408:447  address payable  user = payable (owner) */\n      swap1\n      pop\n        /* \"contracts/4_project.sol\":454:458  user */\n      dup1\n        /* \"contracts/4_project.sol\":454:467  user.transfer */\n      0xffffffffffffffffffffffffffffffffffffffff\n      and\n        /* \"contracts/4_project.sol\":454:482  user.transfer(get_balance()) */\n      0x08fc\n        /* \"contracts/4_project.sol\":468:481  get_balance() */\n      tag_87\n        /* \"contracts/4_project.sol\":468:479  get_balance */\n      tag_44\n        /* \"contracts/4_project.sol\":468:481  get_balance() */\n      jump\t// in\n    tag_87:\n        /* \"contracts/4_project.sol\":454:482  user.transfer(get_balance()) */\n      swap1\n      dup2\n      iszero\n      mul\n      swap1\n      mload(0x40)\n      0x00\n      mload(0x40)\n      dup1\n      dup4\n      sub\n      dup2\n      dup6\n      dup9\n      dup9\n      call\n      swap4\n      pop\n      pop\n      pop\n      pop\n      iszero\n      dup1\n      iszero\n      tag_89\n      jumpi\n      returndatasize\n      0x00\n      dup1\n      returndatacopy\n      revert(0x00, returndatasize)\n    tag_89:\n      pop\n        /* \"contracts/4_project.sol\":366:488  {... */\n      pop\n        /* \"contracts/4_project.sol\":337:488  function remove_eth() public {... */\n      jump\t// out\n        /* \"contracts/4_project.sol\":1841:2149  function sign_in(address _user_address, string memory _name, string memory _password) public {... */\n    tag_41:\n        /* \"contracts/4_project.sol\":1943:1965  Users storage new_user */\n      0x00\n        /* \"contracts/4_project.sol\":1968:1979  no_of_users */\n      0x03\n        /* \"contracts/4_project.sol\":1968:1989  no_of_users[nth_user] */\n      0x00\n        /* \"contracts/4_project.sol\":1980:1988  nth_user */\n      sload(0x04)\n        /* \"contracts/4_project.sol\":1968:1989  no_of_users[nth_user] */\n      dup2\n      mstore\n      0x20\n      add\n      swap1\n      dup2\n      mstore\n      0x20\n      add\n      0x00\n      keccak256\n        /* \"contracts/4_project.sol\":1943:1989  Users storage new_user = no_of_users[nth_user] */\n      swap1\n      pop\n        /* \"contracts/4_project.sol\":1996:2004  nth_user */\n      0x04\n      0x00\n        /* \"contracts/4_project.sol\":1996:2006  nth_user++ */\n      dup2\n      sload\n      dup1\n      swap3\n      swap2\n      swap1\n      tag_91\n      swap1\n      tag_60\n      jump\t// in\n    tag_91:\n      swap2\n      swap1\n      pop\n      sstore\n      pop\n        /* \"contracts/4_project.sol\":2039:2052  _user_address */\n      dup4\n        /* \"contracts/4_project.sol\":2015:2023  new_user */\n      dup2\n        /* \"contracts/4_project.sol\":2015:2036  new_user.user_address */\n      0x00\n      add\n      0x00\n        /* \"contracts/4_project.sol\":2015:2052  new_user.user_address = _user_address */\n      0x0100\n      exp\n      dup2\n      sload\n      dup2\n      0xffffffffffffffffffffffffffffffffffffffff\n      mul\n      not\n      and\n      swap1\n      dup4\n      0xffffffffffffffffffffffffffffffffffffffff\n      and\n      mul\n      or\n      swap1\n      sstore\n      pop\n        /* \"contracts/4_project.sol\":2075:2080  _name */\n      dup3\n        /* \"contracts/4_project.sol\":2059:2067  new_user */\n      dup2\n        /* \"contracts/4_project.sol\":2059:2072  new_user.name */\n      0x01\n      add\n        /* \"contracts/4_project.sol\":2059:2080  new_user.name = _name */\n      swap1\n      dup2\n      tag_92\n      swap2\n      swap1\n      tag_57\n      jump\t// in\n    tag_92:\n      pop\n        /* \"contracts/4_project.sol\":2107:2116  _password */\n      dup2\n        /* \"contracts/4_project.sol\":2087:2095  new_user */\n      dup2\n        /* \"contracts/4_project.sol\":2087:2104  new_user.password */\n      0x02\n      add\n        /* \"contracts/4_project.sol\":2087:2116  new_user.password = _password */\n      swap1\n      dup2\n      tag_93\n      swap2\n      swap1\n      tag_57\n      jump\t// in\n    tag_93:\n      pop\n        /* \"contracts/4_project.sol\":2141:2145  true */\n      0x01\n        /* \"contracts/4_project.sol\":2123:2138  status_of_login */\n      0x05\n      0x00\n        /* \"contracts/4_project.sol\":2123:2145  status_of_login = true */\n      0x0100\n      exp\n      dup2\n      sload\n      dup2\n      0xff\n      mul\n      not\n      and\n      swap1\n      dup4\n      iszero\n      iszero\n      mul\n      or\n      swap1\n      sstore\n      pop\n        /* \"contracts/4_project.sol\":1934:2149  {... */\n      pop\n        /* \"contracts/4_project.sol\":1841:2149  function sign_in(address _user_address, string memory _name, string memory _password) public {... */\n      pop\n      pop\n      pop\n      jump\t// out\n        /* \"contracts/4_project.sol\":197:284  function get_balance() public view returns(uint){... */\n    tag_44:\n        /* \"contracts/4_project.sol\":240:244  uint */\n      0x00\n        /* \"contracts/4_project.sol\":259:280  address(this).balance */\n      selfbalance\n        /* \"contracts/4_project.sol\":252:280  return address(this).balance */\n      swap1\n      pop\n        /* \"contracts/4_project.sol\":197:284  function get_balance() public view returns(uint){... */\n      swap1\n      jump\t// out\n        /* \"#utility.yul\":7:82   */\n    tag_95:\n        /* \"#utility.yul\":40:46   */\n      0x00\n        /* \"#utility.yul\":73:75   */\n      0x40\n        /* \"#utility.yul\":67:76   */\n      mload\n        /* \"#utility.yul\":57:76   */\n      swap1\n      pop\n        /* \"#utility.yul\":7:82   */\n      swap1\n      jump\t// out\n        /* \"#utility.yul\":88:205   */\n    tag_96:\n        /* \"#utility.yul\":197:198   */\n      0x00\n        /* \"#utility.yul\":194:195   */\n      dup1\n        /* \"#utility.yul\":187:199   */\n      revert\n        /* \"#utility.yul\":211:328   */\n    tag_97:\n        /* \"#utility.yul\":320:321   */\n      0x00\n        /* \"#utility.yul\":317:318   */\n      dup1\n        /* \"#utility.yul\":310:322   */\n      revert\n        /* \"#utility.yul\":334:460   */\n    tag_98:\n        /* \"#utility.yul\":371:378   */\n      0x00\n        /* \"#utility.yul\":411:453   */\n      0xffffffffffffffffffffffffffffffffffffffff\n        /* \"#utility.yul\":404:409   */\n      dup3\n        /* \"#utility.yul\":400:454   */\n      and\n        /* \"#utility.yul\":389:454   */\n      swap1\n      pop\n        /* \"#utility.yul\":334:460   */\n      swap2\n      swap1\n      pop\n      jump\t// out\n        /* \"#utility.yul\":466:562   */\n    tag_99:\n        /* \"#utility.yul\":503:510   */\n      0x00\n        /* \"#utility.yul\":532:556   */\n      tag_156\n        /* \"#utility.yul\":550:555   */\n      dup3\n        /* \"#utility.yul\":532:556   */\n      tag_98\n      jump\t// in\n    tag_156:\n        /* \"#utility.yul\":521:556   */\n      swap1\n      pop\n        /* \"#utility.yul\":466:562   */\n      swap2\n      swap1\n      pop\n      jump\t// out\n        /* \"#utility.yul\":568:690   */\n    tag_100:\n        /* \"#utility.yul\":641:665   */\n      tag_158\n        /* \"#utility.yul\":659:664   */\n      dup2\n        /* \"#utility.yul\":641:665   */\n      tag_99\n      jump\t// in\n    tag_158:\n        /* \"#utility.yul\":634:639   */\n      dup2\n        /* \"#utility.yul\":631:666   */\n      eq\n        /* \"#utility.yul\":621:684   */\n      tag_159\n      jumpi\n        /* \"#utility.yul\":680:681   */\n      0x00\n        /* \"#utility.yul\":677:678   */\n      dup1\n        /* \"#utility.yul\":670:682   */\n      revert\n        /* \"#utility.yul\":621:684   */\n    tag_159:\n        /* \"#utility.yul\":568:690   */\n      pop\n      jump\t// out\n        /* \"#utility.yul\":696:835   */\n    tag_101:\n        /* \"#utility.yul\":742:747   */\n      0x00\n        /* \"#utility.yul\":780:786   */\n      dup2\n        /* \"#utility.yul\":767:787   */\n      calldataload\n        /* \"#utility.yul\":758:787   */\n      swap1\n      pop\n        /* \"#utility.yul\":796:829   */\n      tag_161\n        /* \"#utility.yul\":823:828   */\n      dup2\n        /* \"#utility.yul\":796:829   */\n      tag_100\n      jump\t// in\n    tag_161:\n        /* \"#utility.yul\":696:835   */\n      swap3\n      swap2\n      pop\n      pop\n      jump\t// out\n        /* \"#utility.yul\":841:958   */\n    tag_102:\n        /* \"#utility.yul\":950:951   */\n      0x00\n        /* \"#utility.yul\":947:948   */\n      dup1\n        /* \"#utility.yul\":940:952   */\n      revert\n        /* \"#utility.yul\":964:1081   */\n    tag_103:\n        /* \"#utility.yul\":1073:1074   */\n      0x00\n        /* \"#utility.yul\":1070:1071   */\n      dup1\n        /* \"#utility.yul\":1063:1075   */\n      revert\n        /* \"#utility.yul\":1087:1189   */\n    tag_104:\n        /* \"#utility.yul\":1128:1134   */\n      0x00\n        /* \"#utility.yul\":1179:1181   */\n      0x1f\n        /* \"#utility.yul\":1175:1182   */\n      not\n        /* \"#utility.yul\":1170:1172   */\n      0x1f\n        /* \"#utility.yul\":1163:1168   */\n      dup4\n        /* \"#utility.yul\":1159:1173   */\n      add\n        /* \"#utility.yul\":1155:1183   */\n      and\n        /* \"#utility.yul\":1145:1183   */\n      swap1\n      pop\n        /* \"#utility.yul\":1087:1189   */\n      swap2\n      swap1\n      pop\n      jump\t// out\n        /* \"#utility.yul\":1195:1375   */\n    tag_105:\n        /* \"#utility.yul\":1243:1320   */\n      0x4e487b7100000000000000000000000000000000000000000000000000000000\n        /* \"#utility.yul\":1240:1241   */\n      0x00\n        /* \"#utility.yul\":1233:1321   */\n      mstore\n        /* \"#utility.yul\":1340:1344   */\n      0x41\n        /* \"#utility.yul\":1337:1338   */\n      0x04\n        /* \"#utility.yul\":1330:1345   */\n      mstore\n        /* \"#utility.yul\":1364:1368   */\n      0x24\n        /* \"#utility.yul\":1361:1362   */\n      0x00\n        /* \"#utility.yul\":1354:1369   */\n      revert\n        /* \"#utility.yul\":1381:1662   */\n    tag_106:\n        /* \"#utility.yul\":1464:1491   */\n      tag_167\n        /* \"#utility.yul\":1486:1490   */\n      dup3\n        /* \"#utility.yul\":1464:1491   */\n      tag_104\n      jump\t// in\n    tag_167:\n        /* \"#utility.yul\":1456:1462   */\n      dup2\n        /* \"#utility.yul\":1452:1492   */\n      add\n        /* \"#utility.yul\":1594:1600   */\n      dup2\n        /* \"#utility.yul\":1582:1592   */\n      dup2\n        /* \"#utility.yul\":1579:1601   */\n      lt\n        /* \"#utility.yul\":1558:1576   */\n      0xffffffffffffffff\n        /* \"#utility.yul\":1546:1556   */\n      dup3\n        /* \"#utility.yul\":1543:1577   */\n      gt\n        /* \"#utility.yul\":1540:1602   */\n      or\n        /* \"#utility.yul\":1537:1625   */\n      iszero\n      tag_168\n      jumpi\n        /* \"#utility.yul\":1605:1623   */\n      tag_169\n      tag_105\n      jump\t// in\n    tag_169:\n        /* \"#utility.yul\":1537:1625   */\n    tag_168:\n        /* \"#utility.yul\":1645:1655   */\n      dup1\n        /* \"#utility.yul\":1641:1643   */\n      0x40\n        /* \"#utility.yul\":1634:1656   */\n      mstore\n        /* \"#utility.yul\":1424:1662   */\n      pop\n        /* \"#utility.yul\":1381:1662   */\n      pop\n      pop\n      jump\t// out\n        /* \"#utility.yul\":1668:1797   */\n    tag_107:\n        /* \"#utility.yul\":1702:1708   */\n      0x00\n        /* \"#utility.yul\":1729:1749   */\n      tag_171\n      tag_95\n      jump\t// in\n    tag_171:\n        /* \"#utility.yul\":1719:1749   */\n      swap1\n      pop\n        /* \"#utility.yul\":1758:1791   */\n      tag_172\n        /* \"#utility.yul\":1786:1790   */\n      dup3\n        /* \"#utility.yul\":1778:1784   */\n      dup3\n        /* \"#utility.yul\":1758:1791   */\n      tag_106\n      jump\t// in\n    tag_172:\n        /* \"#utility.yul\":1668:1797   */\n      swap2\n      swap1\n      pop\n      jump\t// out\n        /* \"#utility.yul\":1803:2111   */\n    tag_108:\n        /* \"#utility.yul\":1865:1869   */\n      0x00\n        /* \"#utility.yul\":1955:1973   */\n      0xffffffffffffffff\n        /* \"#utility.yul\":1947:1953   */\n      dup3\n        /* \"#utility.yul\":1944:1974   */\n      gt\n        /* \"#utility.yul\":1941:1997   */\n      iszero\n      tag_174\n      jumpi\n        /* \"#utility.yul\":1977:1995   */\n      tag_175\n      tag_105\n      jump\t// in\n    tag_175:\n        /* \"#utility.yul\":1941:1997   */\n    tag_174:\n        /* \"#utility.yul\":2015:2044   */\n      tag_176\n        /* \"#utility.yul\":2037:2043   */\n      dup3\n        /* \"#utility.yul\":2015:2044   */\n      tag_104\n      jump\t// in\n    tag_176:\n        /* \"#utility.yul\":2007:2044   */\n      swap1\n      pop\n        /* \"#utility.yul\":2099:2103   */\n      0x20\n        /* \"#utility.yul\":2093:2097   */\n      dup2\n        /* \"#utility.yul\":2089:2104   */\n      add\n        /* \"#utility.yul\":2081:2104   */\n      swap1\n      pop\n        /* \"#utility.yul\":1803:2111   */\n      swap2\n      swap1\n      pop\n      jump\t// out\n        /* \"#utility.yul\":2117:2263   */\n    tag_109:\n        /* \"#utility.yul\":2214:2220   */\n      dup3\n        /* \"#utility.yul\":2209:2212   */\n      dup2\n        /* \"#utility.yul\":2204:2207   */\n      dup4\n        /* \"#utility.yul\":2191:2221   */\n      calldatacopy\n        /* \"#utility.yul\":2255:2256   */\n      0x00\n        /* \"#utility.yul\":2246:2252   */\n      dup4\n        /* \"#utility.yul\":2241:2244   */\n      dup4\n        /* \"#utility.yul\":2237:2253   */\n      add\n        /* \"#utility.yul\":2230:2257   */\n      mstore\n        /* \"#utility.yul\":2117:2263   */\n      pop\n      pop\n      pop\n      jump\t// out\n        /* \"#utility.yul\":2269:2694   */\n    tag_110:\n        /* \"#utility.yul\":2347:2352   */\n      0x00\n        /* \"#utility.yul\":2372:2438   */\n      tag_179\n        /* \"#utility.yul\":2388:2437   */\n      tag_180\n        /* \"#utility.yul\":2430:2436   */\n      dup5\n        /* \"#utility.yul\":2388:2437   */\n      tag_108\n      jump\t// in\n    tag_180:\n        /* \"#utility.yul\":2372:2438   */\n      tag_107\n      jump\t// in\n    tag_179:\n        /* \"#utility.yul\":2363:2438   */\n      swap1\n      pop\n        /* \"#utility.yul\":2461:2467   */\n      dup3\n        /* \"#utility.yul\":2454:2459   */\n      dup2\n        /* \"#utility.yul\":2447:2468   */\n      mstore\n        /* \"#utility.yul\":2499:2503   */\n      0x20\n        /* \"#utility.yul\":2492:2497   */\n      dup2\n        /* \"#utility.yul\":2488:2504   */\n      add\n        /* \"#utility.yul\":2537:2540   */\n      dup5\n        /* \"#utility.yul\":2528:2534   */\n      dup5\n        /* \"#utility.yul\":2523:2526   */\n      dup5\n        /* \"#utility.yul\":2519:2535   */\n      add\n        /* \"#utility.yul\":2516:2541   */\n      gt\n        /* \"#utility.yul\":2513:2625   */\n      iszero\n      tag_181\n      jumpi\n        /* \"#utility.yul\":2544:2623   */\n      tag_182\n      tag_103\n      jump\t// in\n    tag_182:\n        /* \"#utility.yul\":2513:2625   */\n    tag_181:\n        /* \"#utility.yul\":2634:2688   */\n      tag_183\n        /* \"#utility.yul\":2681:2687   */\n      dup5\n        /* \"#utility.yul\":2676:2679   */\n      dup3\n        /* \"#utility.yul\":2671:2674   */\n      dup6\n        /* \"#utility.yul\":2634:2688   */\n      tag_109\n      jump\t// in\n    tag_183:\n        /* \"#utility.yul\":2353:2694   */\n      pop\n        /* \"#utility.yul\":2269:2694   */\n      swap4\n      swap3\n      pop\n      pop\n      pop\n      jump\t// out\n        /* \"#utility.yul\":2714:3054   */\n    tag_111:\n        /* \"#utility.yul\":2770:2775   */\n      0x00\n        /* \"#utility.yul\":2819:2822   */\n      dup3\n        /* \"#utility.yul\":2812:2816   */\n      0x1f\n        /* \"#utility.yul\":2804:2810   */\n      dup4\n        /* \"#utility.yul\":2800:2817   */\n      add\n        /* \"#utility.yul\":2796:2823   */\n      slt\n        /* \"#utility.yul\":2786:2908   */\n      tag_185\n      jumpi\n        /* \"#utility.yul\":2827:2906   */\n      tag_186\n      tag_102\n      jump\t// in\n    tag_186:\n        /* \"#utility.yul\":2786:2908   */\n    tag_185:\n        /* \"#utility.yul\":2944:2950   */\n      dup2\n        /* \"#utility.yul\":2931:2951   */\n      calldataload\n        /* \"#utility.yul\":2969:3048   */\n      tag_187\n        /* \"#utility.yul\":3044:3047   */\n      dup5\n        /* \"#utility.yul\":3036:3042   */\n      dup3\n        /* \"#utility.yul\":3029:3033   */\n      0x20\n        /* \"#utility.yul\":3021:3027   */\n      dup7\n        /* \"#utility.yul\":3017:3034   */\n      add\n        /* \"#utility.yul\":2969:3048   */\n      tag_110\n      jump\t// in\n    tag_187:\n        /* \"#utility.yul\":2960:3048   */\n      swap2\n      pop\n        /* \"#utility.yul\":2776:3054   */\n      pop\n        /* \"#utility.yul\":2714:3054   */\n      swap3\n      swap2\n      pop\n      pop\n      jump\t// out\n        /* \"#utility.yul\":3060:3714   */\n    tag_16:\n        /* \"#utility.yul\":3138:3144   */\n      0x00\n        /* \"#utility.yul\":3146:3152   */\n      dup1\n        /* \"#utility.yul\":3195:3197   */\n      0x40\n        /* \"#utility.yul\":3183:3192   */\n      dup4\n        /* \"#utility.yul\":3174:3181   */\n      dup6\n        /* \"#utility.yul\":3170:3193   */\n      sub\n        /* \"#utility.yul\":3166:3198   */\n      slt\n        /* \"#utility.yul\":3163:3282   */\n      iszero\n      tag_189\n      jumpi\n        /* \"#utility.yul\":3201:3280   */\n      tag_190\n      tag_96\n      jump\t// in\n    tag_190:\n        /* \"#utility.yul\":3163:3282   */\n    tag_189:\n        /* \"#utility.yul\":3321:3322   */\n      0x00\n        /* \"#utility.yul\":3346:3399   */\n      tag_191\n        /* \"#utility.yul\":3391:3398   */\n      dup6\n        /* \"#utility.yul\":3382:3388   */\n      dup3\n        /* \"#utility.yul\":3371:3380   */\n      dup7\n        /* \"#utility.yul\":3367:3389   */\n      add\n        /* \"#utility.yul\":3346:3399   */\n      tag_101\n      jump\t// in\n    tag_191:\n        /* \"#utility.yul\":3336:3399   */\n      swap3\n      pop\n        /* \"#utility.yul\":3292:3409   */\n      pop\n        /* \"#utility.yul\":3476:3478   */\n      0x20\n        /* \"#utility.yul\":3465:3474   */\n      dup4\n        /* \"#utility.yul\":3461:3479   */\n      add\n        /* \"#utility.yul\":3448:3480   */\n      calldataload\n        /* \"#utility.yul\":3507:3525   */\n      0xffffffffffffffff\n        /* \"#utility.yul\":3499:3505   */\n      dup2\n        /* \"#utility.yul\":3496:3526   */\n      gt\n        /* \"#utility.yul\":3493:3610   */\n      iszero\n      tag_192\n      jumpi\n        /* \"#utility.yul\":3529:3608   */\n      tag_193\n      tag_97\n      jump\t// in\n    tag_193:\n        /* \"#utility.yul\":3493:3610   */\n    tag_192:\n        /* \"#utility.yul\":3634:3697   */\n      tag_194\n        /* \"#utility.yul\":3689:3696   */\n      dup6\n        /* \"#utility.yul\":3680:3686   */\n      dup3\n        /* \"#utility.yul\":3669:3678   */\n      dup7\n        /* \"#utility.yul\":3665:3687   */\n      add\n        /* \"#utility.yul\":3634:3697   */\n      tag_111\n      jump\t// in\n    tag_194:\n        /* \"#utility.yul\":3624:3697   */\n      swap2\n      pop\n        /* \"#utility.yul\":3419:3707   */\n      pop\n        /* \"#utility.yul\":3060:3714   */\n      swap3\n      pop\n      swap3\n      swap1\n      pop\n      jump\t// out\n        /* \"#utility.yul\":3720:3824   */\n    tag_112:\n        /* \"#utility.yul\":3765:3772   */\n      0x00\n        /* \"#utility.yul\":3794:3818   */\n      tag_196\n        /* \"#utility.yul\":3812:3817   */\n      dup3\n        /* \"#utility.yul\":3794:3818   */\n      tag_98\n      jump\t// in\n    tag_196:\n        /* \"#utility.yul\":3783:3818   */\n      swap1\n      pop\n        /* \"#utility.yul\":3720:3824   */\n      swap2\n      swap1\n      pop\n      jump\t// out\n        /* \"#utility.yul\":3830:3968   */\n    tag_113:\n        /* \"#utility.yul\":3911:3943   */\n      tag_198\n        /* \"#utility.yul\":3937:3942   */\n      dup2\n        /* \"#utility.yul\":3911:3943   */\n      tag_112\n      jump\t// in\n    tag_198:\n        /* \"#utility.yul\":3904:3909   */\n      dup2\n        /* \"#utility.yul\":3901:3944   */\n      eq\n        /* \"#utility.yul\":3891:3962   */\n      tag_199\n      jumpi\n        /* \"#utility.yul\":3958:3959   */\n      0x00\n        /* \"#utility.yul\":3955:3956   */\n      dup1\n        /* \"#utility.yul\":3948:3960   */\n      revert\n        /* \"#utility.yul\":3891:3962   */\n    tag_199:\n        /* \"#utility.yul\":3830:3968   */\n      pop\n      jump\t// out\n        /* \"#utility.yul\":3974:4129   */\n    tag_114:\n        /* \"#utility.yul\":4028:4033   */\n      0x00\n        /* \"#utility.yul\":4066:4072   */\n      dup2\n        /* \"#utility.yul\":4053:4073   */\n      calldataload\n        /* \"#utility.yul\":4044:4073   */\n      swap1\n      pop\n        /* \"#utility.yul\":4082:4123   */\n      tag_201\n        /* \"#utility.yul\":4117:4122   */\n      dup2\n        /* \"#utility.yul\":4082:4123   */\n      tag_113\n      jump\t// in\n    tag_201:\n        /* \"#utility.yul\":3974:4129   */\n      swap3\n      swap2\n      pop\n      pop\n      jump\t// out\n        /* \"#utility.yul\":4135:4212   */\n    tag_115:\n        /* \"#utility.yul\":4172:4179   */\n      0x00\n        /* \"#utility.yul\":4201:4206   */\n      dup2\n        /* \"#utility.yul\":4190:4206   */\n      swap1\n      pop\n        /* \"#utility.yul\":4135:4212   */\n      swap2\n      swap1\n      pop\n      jump\t// out\n        /* \"#utility.yul\":4218:4340   */\n    tag_116:\n        /* \"#utility.yul\":4291:4315   */\n      tag_204\n        /* \"#utility.yul\":4309:4314   */\n      dup2\n        /* \"#utility.yul\":4291:4315   */\n      tag_115\n      jump\t// in\n    tag_204:\n        /* \"#utility.yul\":4284:4289   */\n      dup2\n        /* \"#utility.yul\":4281:4316   */\n      eq\n        /* \"#utility.yul\":4271:4334   */\n      tag_205\n      jumpi\n        /* \"#utility.yul\":4330:4331   */\n      0x00\n        /* \"#utility.yul\":4327:4328   */\n      dup1\n        /* \"#utility.yul\":4320:4332   */\n      revert\n        /* \"#utility.yul\":4271:4334   */\n    tag_205:\n        /* \"#utility.yul\":4218:4340   */\n      pop\n      jump\t// out\n        /* \"#utility.yul\":4346:4485   */\n    tag_117:\n        /* \"#utility.yul\":4392:4397   */\n      0x00\n        /* \"#utility.yul\":4430:4436   */\n      dup2\n        /* \"#utility.yul\":4417:4437   */\n      calldataload\n        /* \"#utility.yul\":4408:4437   */\n      swap1\n      pop\n        /* \"#utility.yul\":4446:4479   */\n      tag_207\n        /* \"#utility.yul\":4473:4478   */\n      dup2\n        /* \"#utility.yul\":4446:4479   */\n      tag_116\n      jump\t// in\n    tag_207:\n        /* \"#utility.yul\":4346:4485   */\n      swap3\n      swap2\n      pop\n      pop\n      jump\t// out\n        /* \"#utility.yul\":4491:5924   */\n    tag_20:\n        /* \"#utility.yul\":4623:4629   */\n      0x00\n        /* \"#utility.yul\":4631:4637   */\n      dup1\n        /* \"#utility.yul\":4639:4645   */\n      0x00\n        /* \"#utility.yul\":4647:4653   */\n      dup1\n        /* \"#utility.yul\":4655:4661   */\n      0x00\n        /* \"#utility.yul\":4663:4669   */\n      dup1\n        /* \"#utility.yul\":4712:4715   */\n      0xc0\n        /* \"#utility.yul\":4700:4709   */\n      dup8\n        /* \"#utility.yul\":4691:4698   */\n      dup10\n        /* \"#utility.yul\":4687:4710   */\n      sub\n        /* \"#utility.yul\":4683:4716   */\n      slt\n        /* \"#utility.yul\":4680:4800   */\n      iszero\n      tag_209\n      jumpi\n        /* \"#utility.yul\":4719:4798   */\n      tag_210\n      tag_96\n      jump\t// in\n    tag_210:\n        /* \"#utility.yul\":4680:4800   */\n    tag_209:\n        /* \"#utility.yul\":4867:4868   */\n      0x00\n        /* \"#utility.yul\":4856:4865   */\n      dup8\n        /* \"#utility.yul\":4852:4869   */\n      add\n        /* \"#utility.yul\":4839:4870   */\n      calldataload\n        /* \"#utility.yul\":4897:4915   */\n      0xffffffffffffffff\n        /* \"#utility.yul\":4889:4895   */\n      dup2\n        /* \"#utility.yul\":4886:4916   */\n      gt\n        /* \"#utility.yul\":4883:5000   */\n      iszero\n      tag_211\n      jumpi\n        /* \"#utility.yul\":4919:4998   */\n      tag_212\n      tag_97\n      jump\t// in\n    tag_212:\n        /* \"#utility.yul\":4883:5000   */\n    tag_211:\n        /* \"#utility.yul\":5024:5087   */\n      tag_213\n        /* \"#utility.yul\":5079:5086   */\n      dup10\n        /* \"#utility.yul\":5070:5076   */\n      dup3\n        /* \"#utility.yul\":5059:5068   */\n      dup11\n        /* \"#utility.yul\":5055:5077   */\n      add\n        /* \"#utility.yul\":5024:5087   */\n      tag_111\n      jump\t// in\n    tag_213:\n        /* \"#utility.yul\":5014:5087   */\n      swap7\n      pop\n        /* \"#utility.yul\":4810:5097   */\n      pop\n        /* \"#utility.yul\":5164:5166   */\n      0x20\n        /* \"#utility.yul\":5153:5162   */\n      dup8\n        /* \"#utility.yul\":5149:5167   */\n      add\n        /* \"#utility.yul\":5136:5168   */\n      calldataload\n        /* \"#utility.yul\":5195:5213   */\n      0xffffffffffffffff\n        /* \"#utility.yul\":5187:5193   */\n      dup2\n        /* \"#utility.yul\":5184:5214   */\n      gt\n        /* \"#utility.yul\":5181:5298   */\n      iszero\n      tag_214\n      jumpi\n        /* \"#utility.yul\":5217:5296   */\n      tag_215\n      tag_97\n      jump\t// in\n    tag_215:\n        /* \"#utility.yul\":5181:5298   */\n    tag_214:\n        /* \"#utility.yul\":5322:5385   */\n      tag_216\n        /* \"#utility.yul\":5377:5384   */\n      dup10\n        /* \"#utility.yul\":5368:5374   */\n      dup3\n        /* \"#utility.yul\":5357:5366   */\n      dup11\n        /* \"#utility.yul\":5353:5375   */\n      add\n        /* \"#utility.yul\":5322:5385   */\n      tag_111\n      jump\t// in\n    tag_216:\n        /* \"#utility.yul\":5312:5385   */\n      swap6\n      pop\n        /* \"#utility.yul\":5107:5395   */\n      pop\n        /* \"#utility.yul\":5434:5436   */\n      0x40\n        /* \"#utility.yul\":5460:5521   */\n      tag_217\n        /* \"#utility.yul\":5513:5520   */\n      dup10\n        /* \"#utility.yul\":5504:5510   */\n      dup3\n        /* \"#utility.yul\":5493:5502   */\n      dup11\n        /* \"#utility.yul\":5489:5511   */\n      add\n        /* \"#utility.yul\":5460:5521   */\n      tag_114\n      jump\t// in\n    tag_217:\n        /* \"#utility.yul\":5450:5521   */\n      swap5\n      pop\n        /* \"#utility.yul\":5405:5531   */\n      pop\n        /* \"#utility.yul\":5570:5572   */\n      0x60\n        /* \"#utility.yul\":5596:5649   */\n      tag_218\n        /* \"#utility.yul\":5641:5648   */\n      dup10\n        /* \"#utility.yul\":5632:5638   */\n      dup3\n        /* \"#utility.yul\":5621:5630   */\n      dup11\n        /* \"#utility.yul\":5617:5639   */\n      add\n        /* \"#utility.yul\":5596:5649   */\n      tag_117\n      jump\t// in\n    tag_218:\n        /* \"#utility.yul\":5586:5649   */\n      swap4\n      pop\n        /* \"#utility.yul\":5541:5659   */\n      pop\n        /* \"#utility.yul\":5698:5701   */\n      0x80\n        /* \"#utility.yul\":5725:5778   */\n      tag_219\n        /* \"#utility.yul\":5770:5777   */\n      dup10\n        /* \"#utility.yul\":5761:5767   */\n      dup3\n        /* \"#utility.yul\":5750:5759   */\n      dup11\n        /* \"#utility.yul\":5746:5768   */\n      add\n        /* \"#utility.yul\":5725:5778   */\n      tag_117\n      jump\t// in\n    tag_219:\n        /* \"#utility.yul\":5715:5778   */\n      swap3\n      pop\n        /* \"#utility.yul\":5669:5788   */\n      pop\n        /* \"#utility.yul\":5827:5830   */\n      0xa0\n        /* \"#utility.yul\":5854:5907   */\n      tag_220\n        /* \"#utility.yul\":5899:5906   */\n      dup10\n        /* \"#utility.yul\":5890:5896   */\n      dup3\n        /* \"#utility.yul\":5879:5888   */\n      dup11\n        /* \"#utility.yul\":5875:5897   */\n      add\n        /* \"#utility.yul\":5854:5907   */\n      tag_117\n      jump\t// in\n    tag_220:\n        /* \"#utility.yul\":5844:5907   */\n      swap2\n      pop\n        /* \"#utility.yul\":5798:5917   */\n      pop\n        /* \"#utility.yul\":4491:5924   */\n      swap3\n      swap6\n      pop\n      swap3\n      swap6\n      pop\n      swap3\n      swap6\n      jump\t// out\n        /* \"#utility.yul\":5930:6048   */\n    tag_118:\n        /* \"#utility.yul\":6017:6041   */\n      tag_222\n        /* \"#utility.yul\":6035:6040   */\n      dup2\n        /* \"#utility.yul\":6017:6041   */\n      tag_115\n      jump\t// in\n    tag_222:\n        /* \"#utility.yul\":6012:6015   */\n      dup3\n        /* \"#utility.yul\":6005:6042   */\n      mstore\n        /* \"#utility.yul\":5930:6048   */\n      pop\n      pop\n      jump\t// out\n        /* \"#utility.yul\":6054:6276   */\n    tag_26:\n        /* \"#utility.yul\":6147:6151   */\n      0x00\n        /* \"#utility.yul\":6185:6187   */\n      0x20\n        /* \"#utility.yul\":6174:6183   */\n      dup3\n        /* \"#utility.yul\":6170:6188   */\n      add\n        /* \"#utility.yul\":6162:6188   */\n      swap1\n      pop\n        /* \"#utility.yul\":6198:6269   */\n      tag_224\n        /* \"#utility.yul\":6266:6267   */\n      0x00\n        /* \"#utility.yul\":6255:6264   */\n      dup4\n        /* \"#utility.yul\":6251:6268   */\n      add\n        /* \"#utility.yul\":6242:6248   */\n      dup5\n        /* \"#utility.yul\":6198:6269   */\n      tag_118\n      jump\t// in\n    tag_224:\n        /* \"#utility.yul\":6054:6276   */\n      swap3\n      swap2\n      pop\n      pop\n      jump\t// out\n        /* \"#utility.yul\":6282:6611   */\n    tag_30:\n        /* \"#utility.yul\":6341:6347   */\n      0x00\n        /* \"#utility.yul\":6390:6392   */\n      0x20\n        /* \"#utility.yul\":6378:6387   */\n      dup3\n        /* \"#utility.yul\":6369:6376   */\n      dup5\n        /* \"#utility.yul\":6365:6388   */\n      sub\n        /* \"#utility.yul\":6361:6393   */\n      slt\n        /* \"#utility.yul\":6358:6477   */\n      iszero\n      tag_226\n      jumpi\n        /* \"#utility.yul\":6396:6475   */\n      tag_227\n      tag_96\n      jump\t// in\n    tag_227:\n        /* \"#utility.yul\":6358:6477   */\n    tag_226:\n        /* \"#utility.yul\":6516:6517   */\n      0x00\n        /* \"#utility.yul\":6541:6594   */\n      tag_228\n        /* \"#utility.yul\":6586:6593   */\n      dup5\n        /* \"#utility.yul\":6577:6583   */\n      dup3\n        /* \"#utility.yul\":6566:6575   */\n      dup6\n        /* \"#utility.yul\":6562:6584   */\n      add\n        /* \"#utility.yul\":6541:6594   */\n      tag_117\n      jump\t// in\n    tag_228:\n        /* \"#utility.yul\":6531:6594   */\n      swap2\n      pop\n        /* \"#utility.yul\":6487:6604   */\n      pop\n        /* \"#utility.yul\":6282:6611   */\n      swap3\n      swap2\n      pop\n      pop\n      jump\t// out\n        /* \"#utility.yul\":6617:6716   */\n    tag_119:\n        /* \"#utility.yul\":6669:6675   */\n      0x00\n        /* \"#utility.yul\":6703:6708   */\n      dup2\n        /* \"#utility.yul\":6697:6709   */\n      mload\n        /* \"#utility.yul\":6687:6709   */\n      swap1\n      pop\n        /* \"#utility.yul\":6617:6716   */\n      swap2\n      swap1\n      pop\n      jump\t// out\n        /* \"#utility.yul\":6722:6891   */\n    tag_120:\n        /* \"#utility.yul\":6806:6817   */\n      0x00\n        /* \"#utility.yul\":6840:6846   */\n      dup3\n        /* \"#utility.yul\":6835:6838   */\n      dup3\n        /* \"#utility.yul\":6828:6847   */\n      mstore\n        /* \"#utility.yul\":6880:6884   */\n      0x20\n        /* \"#utility.yul\":6875:6878   */\n      dup3\n        /* \"#utility.yul\":6871:6885   */\n      add\n        /* \"#utility.yul\":6856:6885   */\n      swap1\n      pop\n        /* \"#utility.yul\":6722:6891   */\n      swap3\n      swap2\n      pop\n      pop\n      jump\t// out\n        /* \"#utility.yul\":6897:7143   */\n    tag_121:\n        /* \"#utility.yul\":6978:6979   */\n      0x00\n        /* \"#utility.yul\":6988:7101   */\n    tag_232:\n        /* \"#utility.yul\":7002:7008   */\n      dup4\n        /* \"#utility.yul\":6999:7000   */\n      dup2\n        /* \"#utility.yul\":6996:7009   */\n      lt\n        /* \"#utility.yul\":6988:7101   */\n      iszero\n      tag_234\n      jumpi\n        /* \"#utility.yul\":7087:7088   */\n      dup1\n        /* \"#utility.yul\":7082:7085   */\n      dup3\n        /* \"#utility.yul\":7078:7089   */\n      add\n        /* \"#utility.yul\":7072:7090   */\n      mload\n        /* \"#utility.yul\":7068:7069   */\n      dup2\n        /* \"#utility.yul\":7063:7066   */\n      dup5\n        /* \"#utility.yul\":7059:7070   */\n      add\n        /* \"#utility.yul\":7052:7091   */\n      mstore\n        /* \"#utility.yul\":7024:7026   */\n      0x20\n        /* \"#utility.yul\":7021:7022   */\n      dup2\n        /* \"#utility.yul\":7017:7027   */\n      add\n        /* \"#utility.yul\":7012:7027   */\n      swap1\n      pop\n        /* \"#utility.yul\":6988:7101   */\n      jump(tag_232)\n    tag_234:\n        /* \"#utility.yul\":7135:7136   */\n      0x00\n        /* \"#utility.yul\":7126:7132   */\n      dup5\n        /* \"#utility.yul\":7121:7124   */\n      dup5\n        /* \"#utility.yul\":7117:7133   */\n      add\n        /* \"#utility.yul\":7110:7137   */\n      mstore\n        /* \"#utility.yul\":6959:7143   */\n      pop\n        /* \"#utility.yul\":6897:7143   */\n      pop\n      pop\n      pop\n      jump\t// out\n        /* \"#utility.yul\":7149:7526   */\n    tag_122:\n        /* \"#utility.yul\":7237:7240   */\n      0x00\n        /* \"#utility.yul\":7265:7304   */\n      tag_236\n        /* \"#utility.yul\":7298:7303   */\n      dup3\n        /* \"#utility.yul\":7265:7304   */\n      tag_119\n      jump\t// in\n    tag_236:\n        /* \"#utility.yul\":7320:7391   */\n      tag_237\n        /* \"#utility.yul\":7384:7390   */\n      dup2\n        /* \"#utility.yul\":7379:7382   */\n      dup6\n        /* \"#utility.yul\":7320:7391   */\n      tag_120\n      jump\t// in\n    tag_237:\n        /* \"#utility.yul\":7313:7391   */\n      swap4\n      pop\n        /* \"#utility.yul\":7400:7465   */\n      tag_238\n        /* \"#utility.yul\":7458:7464   */\n      dup2\n        /* \"#utility.yul\":7453:7456   */\n      dup6\n        /* \"#utility.yul\":7446:7450   */\n      0x20\n        /* \"#utility.yul\":7439:7444   */\n      dup7\n        /* \"#utility.yul\":7435:7451   */\n      add\n        /* \"#utility.yul\":7400:7465   */\n      tag_121\n      jump\t// in\n    tag_238:\n        /* \"#utility.yul\":7490:7519   */\n      tag_239\n        /* \"#utility.yul\":7512:7518   */\n      dup2\n        /* \"#utility.yul\":7490:7519   */\n      tag_104\n      jump\t// in\n    tag_239:\n        /* \"#utility.yul\":7485:7488   */\n      dup5\n        /* \"#utility.yul\":7481:7520   */\n      add\n        /* \"#utility.yul\":7474:7520   */\n      swap2\n      pop\n        /* \"#utility.yul\":7241:7526   */\n      pop\n        /* \"#utility.yul\":7149:7526   */\n      swap3\n      swap2\n      pop\n      pop\n      jump\t// out\n        /* \"#utility.yul\":7532:7674   */\n    tag_123:\n        /* \"#utility.yul\":7635:7667   */\n      tag_241\n        /* \"#utility.yul\":7661:7666   */\n      dup2\n        /* \"#utility.yul\":7635:7667   */\n      tag_112\n      jump\t// in\n    tag_241:\n        /* \"#utility.yul\":7630:7633   */\n      dup3\n        /* \"#utility.yul\":7623:7668   */\n      mstore\n        /* \"#utility.yul\":7532:7674   */\n      pop\n      pop\n      jump\t// out\n        /* \"#utility.yul\":7680:7770   */\n    tag_124:\n        /* \"#utility.yul\":7714:7721   */\n      0x00\n        /* \"#utility.yul\":7757:7762   */\n      dup2\n        /* \"#utility.yul\":7750:7763   */\n      iszero\n        /* \"#utility.yul\":7743:7764   */\n      iszero\n        /* \"#utility.yul\":7732:7764   */\n      swap1\n      pop\n        /* \"#utility.yul\":7680:7770   */\n      swap2\n      swap1\n      pop\n      jump\t// out\n        /* \"#utility.yul\":7776:7885   */\n    tag_125:\n        /* \"#utility.yul\":7857:7878   */\n      tag_244\n        /* \"#utility.yul\":7872:7877   */\n      dup2\n        /* \"#utility.yul\":7857:7878   */\n      tag_124\n      jump\t// in\n    tag_244:\n        /* \"#utility.yul\":7852:7855   */\n      dup3\n        /* \"#utility.yul\":7845:7879   */\n      mstore\n        /* \"#utility.yul\":7776:7885   */\n      pop\n      pop\n      jump\t// out\n        /* \"#utility.yul\":7891:9078   */\n    tag_33:\n        /* \"#utility.yul\":8224:8228   */\n      0x00\n        /* \"#utility.yul\":8262:8265   */\n      0x0100\n        /* \"#utility.yul\":8251:8260   */\n      dup3\n        /* \"#utility.yul\":8247:8266   */\n      add\n        /* \"#utility.yul\":8239:8266   */\n      swap1\n      pop\n        /* \"#utility.yul\":8312:8321   */\n      dup2\n        /* \"#utility.yul\":8306:8310   */\n      dup2\n        /* \"#utility.yul\":8302:8322   */\n      sub\n        /* \"#utility.yul\":8298:8299   */\n      0x00\n        /* \"#utility.yul\":8287:8296   */\n      dup4\n        /* \"#utility.yul\":8283:8300   */\n      add\n        /* \"#utility.yul\":8276:8323   */\n      mstore\n        /* \"#utility.yul\":8340:8418   */\n      tag_246\n        /* \"#utility.yul\":8413:8417   */\n      dup2\n        /* \"#utility.yul\":8404:8410   */\n      dup12\n        /* \"#utility.yul\":8340:8418   */\n      tag_122\n      jump\t// in\n    tag_246:\n        /* \"#utility.yul\":8332:8418   */\n      swap1\n      pop\n        /* \"#utility.yul\":8465:8474   */\n      dup2\n        /* \"#utility.yul\":8459:8463   */\n      dup2\n        /* \"#utility.yul\":8455:8475   */\n      sub\n        /* \"#utility.yul\":8450:8452   */\n      0x20\n        /* \"#utility.yul\":8439:8448   */\n      dup4\n        /* \"#utility.yul\":8435:8453   */\n      add\n        /* \"#utility.yul\":8428:8476   */\n      mstore\n        /* \"#utility.yul\":8493:8571   */\n      tag_247\n        /* \"#utility.yul\":8566:8570   */\n      dup2\n        /* \"#utility.yul\":8557:8563   */\n      dup11\n        /* \"#utility.yul\":8493:8571   */\n      tag_122\n      jump\t// in\n    tag_247:\n        /* \"#utility.yul\":8485:8571   */\n      swap1\n      pop\n        /* \"#utility.yul\":8581:8669   */\n      tag_248\n        /* \"#utility.yul\":8665:8667   */\n      0x40\n        /* \"#utility.yul\":8654:8663   */\n      dup4\n        /* \"#utility.yul\":8650:8668   */\n      add\n        /* \"#utility.yul\":8641:8647   */\n      dup10\n        /* \"#utility.yul\":8581:8669   */\n      tag_123\n      jump\t// in\n    tag_248:\n        /* \"#utility.yul\":8679:8751   */\n      tag_249\n        /* \"#utility.yul\":8747:8749   */\n      0x60\n        /* \"#utility.yul\":8736:8745   */\n      dup4\n        /* \"#utility.yul\":8732:8750   */\n      add\n        /* \"#utility.yul\":8723:8729   */\n      dup9\n        /* \"#utility.yul\":8679:8751   */\n      tag_118\n      jump\t// in\n    tag_249:\n        /* \"#utility.yul\":8761:8828   */\n      tag_250\n        /* \"#utility.yul\":8823:8826   */\n      0x80\n        /* \"#utility.yul\":8812:8821   */\n      dup4\n        /* \"#utility.yul\":8808:8827   */\n      add\n        /* \"#utility.yul\":8799:8805   */\n      dup8\n        /* \"#utility.yul\":8761:8828   */\n      tag_125\n      jump\t// in\n    tag_250:\n        /* \"#utility.yul\":8838:8911   */\n      tag_251\n        /* \"#utility.yul\":8906:8909   */\n      0xa0\n        /* \"#utility.yul\":8895:8904   */\n      dup4\n        /* \"#utility.yul\":8891:8910   */\n      add\n        /* \"#utility.yul\":8882:8888   */\n      dup7\n        /* \"#utility.yul\":8838:8911   */\n      tag_118\n      jump\t// in\n    tag_251:\n        /* \"#utility.yul\":8921:8994   */\n      tag_252\n        /* \"#utility.yul\":8989:8992   */\n      0xc0\n        /* \"#utility.yul\":8978:8987   */\n      dup4\n        /* \"#utility.yul\":8974:8993   */\n      add\n        /* \"#utility.yul\":8965:8971   */\n      dup6\n        /* \"#utility.yul\":8921:8994   */\n      tag_118\n      jump\t// in\n    tag_252:\n        /* \"#utility.yul\":9004:9071   */\n      tag_253\n        /* \"#utility.yul\":9066:9069   */\n      0xe0\n        /* \"#utility.yul\":9055:9064   */\n      dup4\n        /* \"#utility.yul\":9051:9070   */\n      add\n        /* \"#utility.yul\":9042:9048   */\n      dup5\n        /* \"#utility.yul\":9004:9071   */\n      tag_125\n      jump\t// in\n    tag_253:\n        /* \"#utility.yul\":7891:9078   */\n      swap10\n      swap9\n      pop\n      pop\n      pop\n      pop\n      pop\n      pop\n      pop\n      pop\n      pop\n      jump\t// out\n        /* \"#utility.yul\":9084:10063   */\n    tag_40:\n        /* \"#utility.yul\":9181:9187   */\n      0x00\n        /* \"#utility.yul\":9189:9195   */\n      dup1\n        /* \"#utility.yul\":9197:9203   */\n      0x00\n        /* \"#utility.yul\":9246:9248   */\n      0x60\n        /* \"#utility.yul\":9234:9243   */\n      dup5\n        /* \"#utility.yul\":9225:9232   */\n      dup7\n        /* \"#utility.yul\":9221:9244   */\n      sub\n        /* \"#utility.yul\":9217:9249   */\n      slt\n        /* \"#utility.yul\":9214:9333   */\n      iszero\n      tag_255\n      jumpi\n        /* \"#utility.yul\":9252:9331   */\n      tag_256\n      tag_96\n      jump\t// in\n    tag_256:\n        /* \"#utility.yul\":9214:9333   */\n    tag_255:\n        /* \"#utility.yul\":9372:9373   */\n      0x00\n        /* \"#utility.yul\":9397:9450   */\n      tag_257\n        /* \"#utility.yul\":9442:9449   */\n      dup7\n        /* \"#utility.yul\":9433:9439   */\n      dup3\n        /* \"#utility.yul\":9422:9431   */\n      dup8\n        /* \"#utility.yul\":9418:9440   */\n      add\n        /* \"#utility.yul\":9397:9450   */\n      tag_101\n      jump\t// in\n    tag_257:\n        /* \"#utility.yul\":9387:9450   */\n      swap4\n      pop\n        /* \"#utility.yul\":9343:9460   */\n      pop\n        /* \"#utility.yul\":9527:9529   */\n      0x20\n        /* \"#utility.yul\":9516:9525   */\n      dup5\n        /* \"#utility.yul\":9512:9530   */\n      add\n        /* \"#utility.yul\":9499:9531   */\n      calldataload\n        /* \"#utility.yul\":9558:9576   */\n      0xffffffffffffffff\n        /* \"#utility.yul\":9550:9556   */\n      dup2\n        /* \"#utility.yul\":9547:9577   */\n      gt\n        /* \"#utility.yul\":9544:9661   */\n      iszero\n      tag_258\n      jumpi\n        /* \"#utility.yul\":9580:9659   */\n      tag_259\n      tag_97\n      jump\t// in\n    tag_259:\n        /* \"#utility.yul\":9544:9661   */\n    tag_258:\n        /* \"#utility.yul\":9685:9748   */\n      tag_260\n        /* \"#utility.yul\":9740:9747   */\n      dup7\n        /* \"#utility.yul\":9731:9737   */\n      dup3\n        /* \"#utility.yul\":9720:9729   */\n      dup8\n        /* \"#utility.yul\":9716:9738   */\n      add\n        /* \"#utility.yul\":9685:9748   */\n      tag_111\n      jump\t// in\n    tag_260:\n        /* \"#utility.yul\":9675:9748   */\n      swap3\n      pop\n        /* \"#utility.yul\":9470:9758   */\n      pop\n        /* \"#utility.yul\":9825:9827   */\n      0x40\n        /* \"#utility.yul\":9814:9823   */\n      dup5\n        /* \"#utility.yul\":9810:9828   */\n      add\n        /* \"#utility.yul\":9797:9829   */\n      calldataload\n        /* \"#utility.yul\":9856:9874   */\n      0xffffffffffffffff\n        /* \"#utility.yul\":9848:9854   */\n      dup2\n        /* \"#utility.yul\":9845:9875   */\n      gt\n        /* \"#utility.yul\":9842:9959   */\n      iszero\n      tag_261\n      jumpi\n        /* \"#utility.yul\":9878:9957   */\n      tag_262\n      tag_97\n      jump\t// in\n    tag_262:\n        /* \"#utility.yul\":9842:9959   */\n    tag_261:\n        /* \"#utility.yul\":9983:10046   */\n      tag_263\n        /* \"#utility.yul\":10038:10045   */\n      dup7\n        /* \"#utility.yul\":10029:10035   */\n      dup3\n        /* \"#utility.yul\":10018:10027   */\n      dup8\n        /* \"#utility.yul\":10014:10036   */\n      add\n        /* \"#utility.yul\":9983:10046   */\n      tag_111\n      jump\t// in\n    tag_263:\n        /* \"#utility.yul\":9973:10046   */\n      swap2\n      pop\n        /* \"#utility.yul\":9768:10056   */\n      pop\n        /* \"#utility.yul\":9084:10063   */\n      swap3\n      pop\n      swap3\n      pop\n      swap3\n      jump\t// out\n        /* \"#utility.yul\":10069:10247   */\n    tag_126:\n        /* \"#utility.yul\":10209:10239   */\n      0x546869732070726f6475637420697320616c726561647920736f6c6400000000\n        /* \"#utility.yul\":10205:10206   */\n      0x00\n        /* \"#utility.yul\":10197:10203   */\n      dup3\n        /* \"#utility.yul\":10193:10207   */\n      add\n        /* \"#utility.yul\":10186:10240   */\n      mstore\n        /* \"#utility.yul\":10069:10247   */\n      pop\n      jump\t// out\n        /* \"#utility.yul\":10253:10619   */\n    tag_127:\n        /* \"#utility.yul\":10395:10398   */\n      0x00\n        /* \"#utility.yul\":10416:10483   */\n      tag_266\n        /* \"#utility.yul\":10480:10482   */\n      0x1c\n        /* \"#utility.yul\":10475:10478   */\n      dup4\n        /* \"#utility.yul\":10416:10483   */\n      tag_120\n      jump\t// in\n    tag_266:\n        /* \"#utility.yul\":10409:10483   */\n      swap2\n      pop\n        /* \"#utility.yul\":10492:10585   */\n      tag_267\n        /* \"#utility.yul\":10581:10584   */\n      dup3\n        /* \"#utility.yul\":10492:10585   */\n      tag_126\n      jump\t// in\n    tag_267:\n        /* \"#utility.yul\":10610:10612   */\n      0x20\n        /* \"#utility.yul\":10605:10608   */\n      dup3\n        /* \"#utility.yul\":10601:10613   */\n      add\n        /* \"#utility.yul\":10594:10613   */\n      swap1\n      pop\n        /* \"#utility.yul\":10253:10619   */\n      swap2\n      swap1\n      pop\n      jump\t// out\n        /* \"#utility.yul\":10625:11044   */\n    tag_51:\n        /* \"#utility.yul\":10791:10795   */\n      0x00\n        /* \"#utility.yul\":10829:10831   */\n      0x20\n        /* \"#utility.yul\":10818:10827   */\n      dup3\n        /* \"#utility.yul\":10814:10832   */\n      add\n        /* \"#utility.yul\":10806:10832   */\n      swap1\n      pop\n        /* \"#utility.yul\":10878:10887   */\n      dup2\n        /* \"#utility.yul\":10872:10876   */\n      dup2\n        /* \"#utility.yul\":10868:10888   */\n      sub\n        /* \"#utility.yul\":10864:10865   */\n      0x00\n        /* \"#utility.yul\":10853:10862   */\n      dup4\n        /* \"#utility.yul\":10849:10866   */\n      add\n        /* \"#utility.yul\":10842:10889   */\n      mstore\n        /* \"#utility.yul\":10906:11037   */\n      tag_269\n        /* \"#utility.yul\":11032:11036   */\n      dup2\n        /* \"#utility.yul\":10906:11037   */\n      tag_127\n      jump\t// in\n    tag_269:\n        /* \"#utility.yul\":10898:11037   */\n      swap1\n      pop\n        /* \"#utility.yul\":10625:11044   */\n      swap2\n      swap1\n      pop\n      jump\t// out\n        /* \"#utility.yul\":11050:11230   */\n    tag_128:\n        /* \"#utility.yul\":11098:11175   */\n      0x4e487b7100000000000000000000000000000000000000000000000000000000\n        /* \"#utility.yul\":11095:11096   */\n      0x00\n        /* \"#utility.yul\":11088:11176   */\n      mstore\n        /* \"#utility.yul\":11195:11199   */\n      0x22\n        /* \"#utility.yul\":11192:11193   */\n      0x04\n        /* \"#utility.yul\":11185:11200   */\n      mstore\n        /* \"#utility.yul\":11219:11223   */\n      0x24\n        /* \"#utility.yul\":11216:11217   */\n      0x00\n        /* \"#utility.yul\":11209:11224   */\n      revert\n        /* \"#utility.yul\":11236:11556   */\n    tag_75:\n        /* \"#utility.yul\":11280:11286   */\n      0x00\n        /* \"#utility.yul\":11317:11318   */\n      0x02\n        /* \"#utility.yul\":11311:11315   */\n      dup3\n        /* \"#utility.yul\":11307:11319   */\n      div\n        /* \"#utility.yul\":11297:11319   */\n      swap1\n      pop\n        /* \"#utility.yul\":11364:11365   */\n      0x01\n        /* \"#utility.yul\":11358:11362   */\n      dup3\n        /* \"#utility.yul\":11354:11366   */\n      and\n        /* \"#utility.yul\":11385:11403   */\n      dup1\n        /* \"#utility.yul\":11375:11456   */\n      tag_272\n      jumpi\n        /* \"#utility.yul\":11441:11445   */\n      0x7f\n        /* \"#utility.yul\":11433:11439   */\n      dup3\n        /* \"#utility.yul\":11429:11446   */\n      and\n        /* \"#utility.yul\":11419:11446   */\n      swap2\n      pop\n        /* \"#utility.yul\":11375:11456   */\n    tag_272:\n        /* \"#utility.yul\":11503:11505   */\n      0x20\n        /* \"#utility.yul\":11495:11501   */\n      dup3\n        /* \"#utility.yul\":11492:11506   */\n      lt\n        /* \"#utility.yul\":11472:11490   */\n      dup2\n        /* \"#utility.yul\":11469:11507   */\n      sub\n        /* \"#utility.yul\":11466:11550   */\n      tag_273\n      jumpi\n        /* \"#utility.yul\":11522:11540   */\n      tag_274\n      tag_128\n      jump\t// in\n    tag_274:\n        /* \"#utility.yul\":11466:11550   */\n    tag_273:\n        /* \"#utility.yul\":11287:11556   */\n      pop\n        /* \"#utility.yul\":11236:11556   */\n      swap2\n      swap1\n      pop\n      jump\t// out\n        /* \"#utility.yul\":11562:11703   */\n    tag_129:\n        /* \"#utility.yul\":11611:11615   */\n      0x00\n        /* \"#utility.yul\":11634:11637   */\n      dup2\n        /* \"#utility.yul\":11626:11637   */\n      swap1\n      pop\n        /* \"#utility.yul\":11657:11660   */\n      dup2\n        /* \"#utility.yul\":11654:11655   */\n      0x00\n        /* \"#utility.yul\":11647:11661   */\n      mstore\n        /* \"#utility.yul\":11691:11695   */\n      0x20\n        /* \"#utility.yul\":11688:11689   */\n      0x00\n        /* \"#utility.yul\":11678:11696   */\n      keccak256\n        /* \"#utility.yul\":11670:11696   */\n      swap1\n      pop\n        /* \"#utility.yul\":11562:11703   */\n      swap2\n      swap1\n      pop\n      jump\t// out\n        /* \"#utility.yul\":11709:11802   */\n    tag_130:\n        /* \"#utility.yul\":11746:11752   */\n      0x00\n        /* \"#utility.yul\":11793:11795   */\n      0x20\n        /* \"#utility.yul\":11788:11790   */\n      0x1f\n        /* \"#utility.yul\":11781:11786   */\n      dup4\n        /* \"#utility.yul\":11777:11791   */\n      add\n        /* \"#utility.yul\":11773:11796   */\n      div\n        /* \"#utility.yul\":11763:11796   */\n      swap1\n      pop\n        /* \"#utility.yul\":11709:11802   */\n      swap2\n      swap1\n      pop\n      jump\t// out\n        /* \"#utility.yul\":11808:11915   */\n    tag_131:\n        /* \"#utility.yul\":11852:11860   */\n      0x00\n        /* \"#utility.yul\":11902:11907   */\n      dup3\n        /* \"#utility.yul\":11896:11900   */\n      dup3\n        /* \"#utility.yul\":11892:11908   */\n      shl\n        /* \"#utility.yul\":11871:11908   */\n      swap1\n      pop\n        /* \"#utility.yul\":11808:11915   */\n      swap3\n      swap2\n      pop\n      pop\n      jump\t// out\n        /* \"#utility.yul\":11921:12314   */\n    tag_132:\n        /* \"#utility.yul\":11990:11996   */\n      0x00\n        /* \"#utility.yul\":12040:12041   */\n      0x08\n        /* \"#utility.yul\":12028:12038   */\n      dup4\n        /* \"#utility.yul\":12024:12042   */\n      mul\n        /* \"#utility.yul\":12063:12160   */\n      tag_279\n        /* \"#utility.yul\":12093:12159   */\n      0xffffffffffffffffffffffffffffffffffffffffffffffffffffffffffffffff\n        /* \"#utility.yul\":12082:12091   */\n      dup3\n        /* \"#utility.yul\":12063:12160   */\n      tag_131\n      jump\t// in\n    tag_279:\n        /* \"#utility.yul\":12181:12220   */\n      tag_280\n        /* \"#utility.yul\":12211:12219   */\n      dup7\n        /* \"#utility.yul\":12200:12209   */\n      dup4\n        /* \"#utility.yul\":12181:12220   */\n      tag_131\n      jump\t// in\n    tag_280:\n        /* \"#utility.yul\":12169:12220   */\n      swap6\n      pop\n        /* \"#utility.yul\":12253:12257   */\n      dup1\n        /* \"#utility.yul\":12249:12258   */\n      not\n        /* \"#utility.yul\":12242:12247   */\n      dup5\n        /* \"#utility.yul\":12238:12259   */\n      and\n        /* \"#utility.yul\":12229:12259   */\n      swap4\n      pop\n        /* \"#utility.yul\":12302:12306   */\n      dup1\n        /* \"#utility.yul\":12292:12300   */\n      dup7\n        /* \"#utility.yul\":12288:12307   */\n      and\n        /* \"#utility.yul\":12281:12286   */\n      dup5\n        /* \"#utility.yul\":12278:12308   */\n      or\n        /* \"#utility.yul\":12268:12308   */\n      swap3\n      pop\n        /* \"#utility.yul\":11997:12314   */\n      pop\n      pop\n        /* \"#utility.yul\":11921:12314   */\n      swap4\n      swap3\n      pop\n      pop\n      pop\n      jump\t// out\n        /* \"#utility.yul\":12320:12380   */\n    tag_133:\n        /* \"#utility.yul\":12348:12351   */\n      0x00\n        /* \"#utility.yul\":12369:12374   */\n      dup2\n        /* \"#utility.yul\":12362:12374   */\n      swap1\n      pop\n        /* \"#utility.yul\":12320:12380   */\n      swap2\n      swap1\n      pop\n      jump\t// out\n        /* \"#utility.yul\":12386:12528   */\n    tag_134:\n        /* \"#utility.yul\":12436:12445   */\n      0x00\n        /* \"#utility.yul\":12469:12522   */\n      tag_283\n        /* \"#utility.yul\":12487:12521   */\n      tag_284\n        /* \"#utility.yul\":12496:12520   */\n      tag_285\n        /* \"#utility.yul\":12514:12519   */\n      dup5\n        /* \"#utility.yul\":12496:12520   */\n      tag_115\n      jump\t// in\n    tag_285:\n        /* \"#utility.yul\":12487:12521   */\n      tag_133\n      jump\t// in\n    tag_284:\n        /* \"#utility.yul\":12469:12522   */\n      tag_115\n      jump\t// in\n    tag_283:\n        /* \"#utility.yul\":12456:12522   */\n      swap1\n      pop\n        /* \"#utility.yul\":12386:12528   */\n      swap2\n      swap1\n      pop\n      jump\t// out\n        /* \"#utility.yul\":12534:12609   */\n    tag_135:\n        /* \"#utility.yul\":12577:12580   */\n      0x00\n        /* \"#utility.yul\":12598:12603   */\n      dup2\n        /* \"#utility.yul\":12591:12603   */\n      swap1\n      pop\n        /* \"#utility.yul\":12534:12609   */\n      swap2\n      swap1\n      pop\n      jump\t// out\n        /* \"#utility.yul\":12615:12884   */\n    tag_136:\n        /* \"#utility.yul\":12725:12764   */\n      tag_288\n        /* \"#utility.yul\":12756:12763   */\n      dup4\n        /* \"#utility.yul\":12725:12764   */\n      tag_134\n      jump\t// in\n    tag_288:\n        /* \"#utility.yul\":12786:12877   */\n      tag_289\n        /* \"#utility.yul\":12835:12876   */\n      tag_290\n        /* \"#utility.yul\":12859:12875   */\n      dup3\n        /* \"#utility.yul\":12835:12876   */\n      tag_135\n      jump\t// in\n    tag_290:\n        /* \"#utility.yul\":12827:12833   */\n      dup5\n        /* \"#utility.yul\":12820:12824   */\n      dup5\n        /* \"#utility.yul\":12814:12825   */\n      sload\n        /* \"#utility.yul\":12786:12877   */\n      tag_132\n      jump\t// in\n    tag_289:\n        /* \"#utility.yul\":12780:12784   */\n      dup3\n        /* \"#utility.yul\":12773:12878   */\n      sstore\n        /* \"#utility.yul\":12691:12884   */\n      pop\n        /* \"#utility.yul\":12615:12884   */\n      pop\n      pop\n      pop\n      jump\t// out\n        /* \"#utility.yul\":12890:12963   */\n    tag_137:\n        /* \"#utility.yul\":12935:12938   */\n      0x00\n        /* \"#utility.yul\":12890:12963   */\n      swap1\n      jump\t// out\n        /* \"#utility.yul\":12969:13158   */\n    tag_138:\n        /* \"#utility.yul\":13046:13078   */\n      tag_293\n      tag_137\n      jump\t// in\n    tag_293:\n        /* \"#utility.yul\":13087:13152   */\n      tag_294\n        /* \"#utility.yul\":13145:13151   */\n      dup2\n        /* \"#utility.yul\":13137:13143   */\n      dup5\n        /* \"#utility.yul\":13131:13135   */\n      dup5\n        /* \"#utility.yul\":13087:13152   */\n      tag_136\n      jump\t// in\n    tag_294:\n        /* \"#utility.yul\":13022:13158   */\n      pop\n        /* \"#utility.yul\":12969:13158   */\n      pop\n      pop\n      jump\t// out\n        /* \"#utility.yul\":13164:13350   */\n    tag_139:\n        /* \"#utility.yul\":13224:13344   */\n    tag_296:\n        /* \"#utility.yul\":13241:13244   */\n      dup2\n        /* \"#utility.yul\":13234:13239   */\n      dup2\n        /* \"#utility.yul\":13231:13245   */\n      lt\n        /* \"#utility.yul\":13224:13344   */\n      iszero\n      tag_298\n      jumpi\n        /* \"#utility.yul\":13295:13334   */\n      tag_299\n        /* \"#utility.yul\":13332:13333   */\n      0x00\n        /* \"#utility.yul\":13325:13330   */\n      dup3\n        /* \"#utility.yul\":13295:13334   */\n      tag_138\n      jump\t// in\n    tag_299:\n        /* \"#utility.yul\":13268:13269   */\n      0x01\n        /* \"#utility.yul\":13261:13266   */\n      dup2\n        /* \"#utility.yul\":13257:13270   */\n      add\n        /* \"#utility.yul\":13248:13270   */\n      swap1\n      pop\n        /* \"#utility.yul\":13224:13344   */\n      jump(tag_296)\n    tag_298:\n        /* \"#utility.yul\":13164:13350   */\n      pop\n      pop\n      jump\t// out\n        /* \"#utility.yul\":13356:13899   */\n    tag_140:\n        /* \"#utility.yul\":13457:13459   */\n      0x1f\n        /* \"#utility.yul\":13452:13455   */\n      dup3\n        /* \"#utility.yul\":13449:13460   */\n      gt\n        /* \"#utility.yul\":13446:13892   */\n      iszero\n      tag_301\n      jumpi\n        /* \"#utility.yul\":13491:13529   */\n      tag_302\n        /* \"#utility.yul\":13523:13528   */\n      dup2\n        /* \"#utility.yul\":13491:13529   */\n      tag_129\n      jump\t// in\n    tag_302:\n        /* \"#utility.yul\":13575:13604   */\n      tag_303\n        /* \"#utility.yul\":13593:13603   */\n      dup5\n        /* \"#utility.yul\":13575:13604   */\n      tag_130\n      jump\t// in\n    tag_303:\n        /* \"#utility.yul\":13565:13573   */\n      dup2\n        /* \"#utility.yul\":13561:13605   */\n      add\n        /* \"#utility.yul\":13758:13760   */\n      0x20\n        /* \"#utility.yul\":13746:13756   */\n      dup6\n        /* \"#utility.yul\":13743:13761   */\n      lt\n        /* \"#utility.yul\":13740:13789   */\n      iszero\n      tag_304\n      jumpi\n        /* \"#utility.yul\":13779:13787   */\n      dup2\n        /* \"#utility.yul\":13764:13787   */\n      swap1\n      pop\n        /* \"#utility.yul\":13740:13789   */\n    tag_304:\n        /* \"#utility.yul\":13802:13882   */\n      tag_305\n        /* \"#utility.yul\":13858:13880   */\n      tag_306\n        /* \"#utility.yul\":13876:13879   */\n      dup6\n        /* \"#utility.yul\":13858:13880   */\n      tag_130\n      jump\t// in\n    tag_306:\n        /* \"#utility.yul\":13848:13856   */\n      dup4\n        /* \"#utility.yul\":13844:13881   */\n      add\n        /* \"#utility.yul\":13831:13842   */\n      dup3\n        /* \"#utility.yul\":13802:13882   */\n      tag_139\n      jump\t// in\n    tag_305:\n        /* \"#utility.yul\":13461:13892   */\n      pop\n      pop\n        /* \"#utility.yul\":13446:13892   */\n    tag_301:\n        /* \"#utility.yul\":13356:13899   */\n      pop\n      pop\n      pop\n      jump\t// out\n        /* \"#utility.yul\":13905:14022   */\n    tag_141:\n        /* \"#utility.yul\":13959:13967   */\n      0x00\n        /* \"#utility.yul\":14009:14014   */\n      dup3\n        /* \"#utility.yul\":14003:14007   */\n      dup3\n        /* \"#utility.yul\":13999:14015   */\n      shr\n        /* \"#utility.yul\":13978:14015   */\n      swap1\n      pop\n        /* \"#utility.yul\":13905:14022   */\n      swap3\n      swap2\n      pop\n      pop\n      jump\t// out\n        /* \"#utility.yul\":14028:14197   */\n    tag_142:\n        /* \"#utility.yul\":14072:14078   */\n      0x00\n        /* \"#utility.yul\":14105:14156   */\n      tag_309\n        /* \"#utility.yul\":14153:14154   */\n      0x00\n        /* \"#utility.yul\":14149:14155   */\n      not\n        /* \"#utility.yul\":14141:14146   */\n      dup5\n        /* \"#utility.yul\":14138:14139   */\n      0x08\n        /* \"#utility.yul\":14134:14147   */\n      mul\n        /* \"#utility.yul\":14105:14156   */\n      tag_141\n      jump\t// in\n    tag_309:\n        /* \"#utility.yul\":14101:14157   */\n      not\n        /* \"#utility.yul\":14186:14190   */\n      dup1\n        /* \"#utility.yul\":14180:14184   */\n      dup4\n        /* \"#utility.yul\":14176:14191   */\n      and\n        /* \"#utility.yul\":14166:14191   */\n      swap2\n      pop\n        /* \"#utility.yul\":14079:14197   */\n      pop\n        /* \"#utility.yul\":14028:14197   */\n      swap3\n      swap2\n      pop\n      pop\n      jump\t// out\n        /* \"#utility.yul\":14202:14497   */\n    tag_143:\n        /* \"#utility.yul\":14278:14282   */\n      0x00\n        /* \"#utility.yul\":14424:14453   */\n      tag_311\n        /* \"#utility.yul\":14449:14452   */\n      dup4\n        /* \"#utility.yul\":14443:14447   */\n      dup4\n        /* \"#utility.yul\":14424:14453   */\n      tag_142\n      jump\t// in\n    tag_311:\n        /* \"#utility.yul\":14416:14453   */\n      swap2\n      pop\n        /* \"#utility.yul\":14486:14489   */\n      dup3\n        /* \"#utility.yul\":14483:14484   */\n      0x02\n        /* \"#utility.yul\":14479:14490   */\n      mul\n        /* \"#utility.yul\":14473:14477   */\n      dup3\n        /* \"#utility.yul\":14470:14491   */\n      or\n        /* \"#utility.yul\":14462:14491   */\n      swap1\n      pop\n        /* \"#utility.yul\":14202:14497   */\n      swap3\n      swap2\n      pop\n      pop\n      jump\t// out\n        /* \"#utility.yul\":14502:15897   */\n    tag_57:\n        /* \"#utility.yul\":14619:14656   */\n      tag_313\n        /* \"#utility.yul\":14652:14655   */\n      dup3\n        /* \"#utility.yul\":14619:14656   */\n      tag_119\n      jump\t// in\n    tag_313:\n        /* \"#utility.yul\":14721:14739   */\n      0xffffffffffffffff\n        /* \"#utility.yul\":14713:14719   */\n      dup2\n        /* \"#utility.yul\":14710:14740   */\n      gt\n        /* \"#utility.yul\":14707:14763   */\n      iszero\n      tag_314\n      jumpi\n        /* \"#utility.yul\":14743:14761   */\n      tag_315\n      tag_105\n      jump\t// in\n    tag_315:\n        /* \"#utility.yul\":14707:14763   */\n    tag_314:\n        /* \"#utility.yul\":14787:14825   */\n      tag_316\n        /* \"#utility.yul\":14819:14823   */\n      dup3\n        /* \"#utility.yul\":14813:14824   */\n      sload\n        /* \"#utility.yul\":14787:14825   */\n      tag_75\n      jump\t// in\n    tag_316:\n        /* \"#utility.yul\":14872:14939   */\n      tag_317\n        /* \"#utility.yul\":14932:14938   */\n      dup3\n        /* \"#utility.yul\":14924:14930   */\n      dup3\n        /* \"#utility.yul\":14918:14922   */\n      dup6\n        /* \"#utility.yul\":14872:14939   */\n      tag_140\n      jump\t// in\n    tag_317:\n        /* \"#utility.yul\":14966:14967   */\n      0x00\n        /* \"#utility.yul\":14990:14994   */\n      0x20\n        /* \"#utility.yul\":14977:14994   */\n      swap1\n      pop\n        /* \"#utility.yul\":15022:15024   */\n      0x1f\n        /* \"#utility.yul\":15014:15020   */\n      dup4\n        /* \"#utility.yul\":15011:15025   */\n      gt\n        /* \"#utility.yul\":15039:15040   */\n      0x01\n        /* \"#utility.yul\":15034:15652   */\n      dup2\n      eq\n      tag_319\n      jumpi\n        /* \"#utility.yul\":15696:15697   */\n      0x00\n        /* \"#utility.yul\":15713:15719   */\n      dup5\n        /* \"#utility.yul\":15710:15787   */\n      iszero\n      tag_320\n      jumpi\n        /* \"#utility.yul\":15762:15771   */\n      dup3\n        /* \"#utility.yul\":15757:15760   */\n      dup8\n        /* \"#utility.yul\":15753:15772   */\n      add\n        /* \"#utility.yul\":15747:15773   */\n      mload\n        /* \"#utility.yul\":15738:15773   */\n      swap1\n      pop\n        /* \"#utility.yul\":15710:15787   */\n    tag_320:\n        /* \"#utility.yul\":15813:15880   */\n      tag_321\n        /* \"#utility.yul\":15873:15879   */\n      dup6\n        /* \"#utility.yul\":15866:15871   */\n      dup3\n        /* \"#utility.yul\":15813:15880   */\n      tag_143\n      jump\t// in\n    tag_321:\n        /* \"#utility.yul\":15807:15811   */\n      dup7\n        /* \"#utility.yul\":15800:15881   */\n      sstore\n        /* \"#utility.yul\":15669:15891   */\n      pop\n        /* \"#utility.yul\":15004:15891   */\n      jump(tag_318)\n        /* \"#utility.yul\":15034:15652   */\n    tag_319:\n        /* \"#utility.yul\":15086:15090   */\n      0x1f\n        /* \"#utility.yul\":15082:15091   */\n      not\n        /* \"#utility.yul\":15074:15080   */\n      dup5\n        /* \"#utility.yul\":15070:15092   */\n      and\n        /* \"#utility.yul\":15120:15157   */\n      tag_322\n        /* \"#utility.yul\":15152:15156   */\n      dup7\n        /* \"#utility.yul\":15120:15157   */\n      tag_129\n      jump\t// in\n    tag_322:\n        /* \"#utility.yul\":15179:15180   */\n      0x00\n        /* \"#utility.yul\":15193:15401   */\n    tag_323:\n        /* \"#utility.yul\":15207:15214   */\n      dup3\n        /* \"#utility.yul\":15204:15205   */\n      dup2\n        /* \"#utility.yul\":15201:15215   */\n      lt\n        /* \"#utility.yul\":15193:15401   */\n      iszero\n      tag_325\n      jumpi\n        /* \"#utility.yul\":15286:15295   */\n      dup5\n        /* \"#utility.yul\":15281:15284   */\n      dup10\n        /* \"#utility.yul\":15277:15296   */\n      add\n        /* \"#utility.yul\":15271:15297   */\n      mload\n        /* \"#utility.yul\":15263:15269   */\n      dup3\n        /* \"#utility.yul\":15256:15298   */\n      sstore\n        /* \"#utility.yul\":15337:15338   */\n      0x01\n        /* \"#utility.yul\":15329:15335   */\n      dup3\n        /* \"#utility.yul\":15325:15339   */\n      add\n        /* \"#utility.yul\":15315:15339   */\n      swap2\n      pop\n        /* \"#utility.yul\":15384:15386   */\n      0x20\n        /* \"#utility.yul\":15373:15382   */\n      dup6\n        /* \"#utility.yul\":15369:15387   */\n      add\n        /* \"#utility.yul\":15356:15387   */\n      swap5\n      pop\n        /* \"#utility.yul\":15230:15234   */\n      0x20\n        /* \"#utility.yul\":15227:15228   */\n      dup2\n        /* \"#utility.yul\":15223:15235   */\n      add\n        /* \"#utility.yul\":15218:15235   */\n      swap1\n      pop\n        /* \"#utility.yul\":15193:15401   */\n      jump(tag_323)\n    tag_325:\n        /* \"#utility.yul\":15429:15435   */\n      dup7\n        /* \"#utility.yul\":15420:15427   */\n      dup4\n        /* \"#utility.yul\":15417:15436   */\n      lt\n        /* \"#utility.yul\":15414:15593   */\n      iszero\n      tag_326\n      jumpi\n        /* \"#utility.yul\":15487:15496   */\n      dup5\n        /* \"#utility.yul\":15482:15485   */\n      dup10\n        /* \"#utility.yul\":15478:15497   */\n      add\n        /* \"#utility.yul\":15472:15498   */\n      mload\n        /* \"#utility.yul\":15530:15578   */\n      tag_327\n        /* \"#utility.yul\":15572:15576   */\n      0x1f\n        /* \"#utility.yul\":15564:15570   */\n      dup10\n        /* \"#utility.yul\":15560:15577   */\n      and\n        /* \"#utility.yul\":15549:15558   */\n      dup3\n        /* \"#utility.yul\":15530:15578   */\n      tag_142\n      jump\t// in\n    tag_327:\n        /* \"#utility.yul\":15522:15528   */\n      dup4\n        /* \"#utility.yul\":15515:15579   */\n      sstore\n        /* \"#utility.yul\":15437:15593   */\n      pop\n        /* \"#utility.yul\":15414:15593   */\n    tag_326:\n        /* \"#utility.yul\":15639:15640   */\n      0x01\n        /* \"#utility.yul\":15635:15636   */\n      0x02\n        /* \"#utility.yul\":15627:15633   */\n      dup9\n        /* \"#utility.yul\":15623:15637   */\n      mul\n        /* \"#utility.yul\":15619:15641   */\n      add\n        /* \"#utility.yul\":15613:15617   */\n      dup9\n        /* \"#utility.yul\":15606:15642   */\n      sstore\n        /* \"#utility.yul\":15041:15652   */\n      pop\n      pop\n      pop\n        /* \"#utility.yul\":15004:15891   */\n    tag_318:\n      pop\n        /* \"#utility.yul\":14594:15897   */\n      pop\n      pop\n      pop\n        /* \"#utility.yul\":14502:15897   */\n      pop\n      pop\n      jump\t// out\n        /* \"#utility.yul\":15903:16083   */\n    tag_144:\n        /* \"#utility.yul\":15951:16028   */\n      0x4e487b7100000000000000000000000000000000000000000000000000000000\n        /* \"#utility.yul\":15948:15949   */\n      0x00\n        /* \"#utility.yul\":15941:16029   */\n      mstore\n        /* \"#utility.yul\":16048:16052   */\n      0x11\n        /* \"#utility.yul\":16045:16046   */\n      0x04\n        /* \"#utility.yul\":16038:16053   */\n      mstore\n        /* \"#utility.yul\":16072:16076   */\n      0x24\n        /* \"#utility.yul\":16069:16070   */\n      0x00\n        /* \"#utility.yul\":16062:16077   */\n      revert\n        /* \"#utility.yul\":16089:16322   */\n    tag_60:\n        /* \"#utility.yul\":16128:16131   */\n      0x00\n        /* \"#utility.yul\":16151:16175   */\n      tag_330\n        /* \"#utility.yul\":16169:16174   */\n      dup3\n        /* \"#utility.yul\":16151:16175   */\n      tag_115\n      jump\t// in\n    tag_330:\n        /* \"#utility.yul\":16142:16175   */\n      swap2\n      pop\n        /* \"#utility.yul\":16197:16263   */\n      0xffffffffffffffffffffffffffffffffffffffffffffffffffffffffffffffff\n        /* \"#utility.yul\":16190:16195   */\n      dup3\n        /* \"#utility.yul\":16187:16264   */\n      sub\n        /* \"#utility.yul\":16184:16287   */\n      tag_331\n      jumpi\n        /* \"#utility.yul\":16267:16285   */\n      tag_332\n      tag_144\n      jump\t// in\n    tag_332:\n        /* \"#utility.yul\":16184:16287   */\n    tag_331:\n        /* \"#utility.yul\":16314:16315   */\n      0x01\n        /* \"#utility.yul\":16307:16312   */\n      dup3\n        /* \"#utility.yul\":16303:16316   */\n      add\n        /* \"#utility.yul\":16296:16316   */\n      swap1\n      pop\n        /* \"#utility.yul\":16089:16322   */\n      swap2\n      swap1\n      pop\n      jump\t// out\n        /* \"#utility.yul\":16328:16738   */\n    tag_64:\n        /* \"#utility.yul\":16368:16375   */\n      0x00\n        /* \"#utility.yul\":16391:16411   */\n      tag_334\n        /* \"#utility.yul\":16409:16410   */\n      dup3\n        /* \"#utility.yul\":16391:16411   */\n      tag_115\n      jump\t// in\n    tag_334:\n        /* \"#utility.yul\":16386:16411   */\n      swap2\n      pop\n        /* \"#utility.yul\":16425:16445   */\n      tag_335\n        /* \"#utility.yul\":16443:16444   */\n      dup4\n        /* \"#utility.yul\":16425:16445   */\n      tag_115\n      jump\t// in\n    tag_335:\n        /* \"#utility.yul\":16420:16445   */\n      swap3\n      pop\n        /* \"#utility.yul\":16480:16481   */\n      dup3\n        /* \"#utility.yul\":16477:16478   */\n      dup3\n        /* \"#utility.yul\":16473:16482   */\n      mul\n        /* \"#utility.yul\":16502:16532   */\n      tag_336\n        /* \"#utility.yul\":16520:16531   */\n      dup2\n        /* \"#utility.yul\":16502:16532   */\n      tag_115\n      jump\t// in\n    tag_336:\n        /* \"#utility.yul\":16491:16532   */\n      swap2\n      pop\n        /* \"#utility.yul\":16681:16682   */\n      dup3\n        /* \"#utility.yul\":16672:16679   */\n      dup3\n        /* \"#utility.yul\":16668:16683   */\n      div\n        /* \"#utility.yul\":16665:16666   */\n      dup5\n        /* \"#utility.yul\":16662:16684   */\n      eq\n        /* \"#utility.yul\":16642:16643   */\n      dup4\n        /* \"#utility.yul\":16635:16644   */\n      iszero\n        /* \"#utility.yul\":16615:16698   */\n      or\n        /* \"#utility.yul\":16592:16731   */\n      tag_337\n      jumpi\n        /* \"#utility.yul\":16711:16729   */\n      tag_338\n      tag_144\n      jump\t// in\n    tag_338:\n        /* \"#utility.yul\":16592:16731   */\n    tag_337:\n        /* \"#utility.yul\":16376:16738   */\n      pop\n        /* \"#utility.yul\":16328:16738   */\n      swap3\n      swap2\n      pop\n      pop\n      jump\t// out\n        /* \"#utility.yul\":16744:16924   */\n    tag_145:\n        /* \"#utility.yul\":16792:16869   */\n      0x4e487b7100000000000000000000000000000000000000000000000000000000\n        /* \"#utility.yul\":16789:16790   */\n      0x00\n        /* \"#utility.yul\":16782:16870   */\n      mstore\n        /* \"#utility.yul\":16889:16893   */\n      0x12\n        /* \"#utility.yul\":16886:16887   */\n      0x04\n        /* \"#utility.yul\":16879:16894   */\n      mstore\n        /* \"#utility.yul\":16913:16917   */\n      0x24\n        /* \"#utility.yul\":16910:16911   */\n      0x00\n        /* \"#utility.yul\":16903:16918   */\n      revert\n        /* \"#utility.yul\":16930:17115   */\n    tag_66:\n        /* \"#utility.yul\":16970:16971   */\n      0x00\n        /* \"#utility.yul\":16987:17007   */\n      tag_341\n        /* \"#utility.yul\":17005:17006   */\n      dup3\n        /* \"#utility.yul\":16987:17007   */\n      tag_115\n      jump\t// in\n    tag_341:\n        /* \"#utility.yul\":16982:17007   */\n      swap2\n      pop\n        /* \"#utility.yul\":17021:17041   */\n      tag_342\n        /* \"#utility.yul\":17039:17040   */\n      dup4\n        /* \"#utility.yul\":17021:17041   */\n      tag_115\n      jump\t// in\n    tag_342:\n        /* \"#utility.yul\":17016:17041   */\n      swap3\n      pop\n        /* \"#utility.yul\":17060:17061   */\n      dup3\n        /* \"#utility.yul\":17050:17085   */\n      tag_343\n      jumpi\n        /* \"#utility.yul\":17065:17083   */\n      tag_344\n      tag_145\n      jump\t// in\n    tag_344:\n        /* \"#utility.yul\":17050:17085   */\n    tag_343:\n        /* \"#utility.yul\":17107:17108   */\n      dup3\n        /* \"#utility.yul\":17104:17105   */\n      dup3\n        /* \"#utility.yul\":17100:17109   */\n      div\n        /* \"#utility.yul\":17095:17109   */\n      swap1\n      pop\n        /* \"#utility.yul\":16930:17115   */\n      swap3\n      swap2\n      pop\n      pop\n      jump\t// out\n        /* \"#utility.yul\":17121:17351   */\n    tag_146:\n        /* \"#utility.yul\":17261:17295   */\n      0x506c656173652070617920746865206f6e6c79203525206f6620796f75722070\n        /* \"#utility.yul\":17257:17258   */\n      0x00\n        /* \"#utility.yul\":17249:17255   */\n      dup3\n        /* \"#utility.yul\":17245:17259   */\n      add\n        /* \"#utility.yul\":17238:17296   */\n      mstore\n        /* \"#utility.yul\":17330:17343   */\n      0x726f6475637420636f7374000000000000000000000000000000000000000000\n        /* \"#utility.yul\":17325:17327   */\n      0x20\n        /* \"#utility.yul\":17317:17323   */\n      dup3\n        /* \"#utility.yul\":17313:17328   */\n      add\n        /* \"#utility.yul\":17306:17344   */\n      mstore\n        /* \"#utility.yul\":17121:17351   */\n      pop\n      jump\t// out\n        /* \"#utility.yul\":17357:17723   */\n    tag_147:\n        /* \"#utility.yul\":17499:17502   */\n      0x00\n        /* \"#utility.yul\":17520:17587   */\n      tag_347\n        /* \"#utility.yul\":17584:17586   */\n      0x2b\n        /* \"#utility.yul\":17579:17582   */\n      dup4\n        /* \"#utility.yul\":17520:17587   */\n      tag_120\n      jump\t// in\n    tag_347:\n        /* \"#utility.yul\":17513:17587   */\n      swap2\n      pop\n        /* \"#utility.yul\":17596:17689   */\n      tag_348\n        /* \"#utility.yul\":17685:17688   */\n      dup3\n        /* \"#utility.yul\":17596:17689   */\n      tag_146\n      jump\t// in\n    tag_348:\n        /* \"#utility.yul\":17714:17716   */\n      0x40\n        /* \"#utility.yul\":17709:17712   */\n      dup3\n        /* \"#utility.yul\":17705:17717   */\n      add\n        /* \"#utility.yul\":17698:17717   */\n      swap1\n      pop\n        /* \"#utility.yul\":17357:17723   */\n      swap2\n      swap1\n      pop\n      jump\t// out\n        /* \"#utility.yul\":17729:18148   */\n    tag_69:\n        /* \"#utility.yul\":17895:17899   */\n      0x00\n        /* \"#utility.yul\":17933:17935   */\n      0x20\n        /* \"#utility.yul\":17922:17931   */\n      dup3\n        /* \"#utility.yul\":17918:17936   */\n      add\n        /* \"#utility.yul\":17910:17936   */\n      swap1\n      pop\n        /* \"#utility.yul\":17982:17991   */\n      dup2\n        /* \"#utility.yul\":17976:17980   */\n      dup2\n        /* \"#utility.yul\":17972:17992   */\n      sub\n        /* \"#utility.yul\":17968:17969   */\n      0x00\n        /* \"#utility.yul\":17957:17966   */\n      dup4\n        /* \"#utility.yul\":17953:17970   */\n      add\n        /* \"#utility.yul\":17946:17993   */\n      mstore\n        /* \"#utility.yul\":18010:18141   */\n      tag_350\n        /* \"#utility.yul\":18136:18140   */\n      dup2\n        /* \"#utility.yul\":18010:18141   */\n      tag_147\n      jump\t// in\n    tag_350:\n        /* \"#utility.yul\":18002:18141   */\n      swap1\n      pop\n        /* \"#utility.yul\":17729:18148   */\n      swap2\n      swap1\n      pop\n      jump\t// out\n        /* \"#utility.yul\":18154:18322   */\n    tag_148:\n        /* \"#utility.yul\":18294:18314   */\n      0x506c65617365206c6f67696e2066697273740000000000000000000000000000\n        /* \"#utility.yul\":18290:18291   */\n      0x00\n        /* \"#utility.yul\":18282:18288   */\n      dup3\n        /* \"#utility.yul\":18278:18292   */\n      add\n        /* \"#utility.yul\":18271:18315   */\n      mstore\n        /* \"#utility.yul\":18154:18322   */\n      pop\n      jump\t// out\n        /* \"#utility.yul\":18328:18694   */\n    tag_149:\n        /* \"#utility.yul\":18470:18473   */\n      0x00\n        /* \"#utility.yul\":18491:18558   */\n      tag_353\n        /* \"#utility.yul\":18555:18557   */\n      0x12\n        /* \"#utility.yul\":18550:18553   */\n      dup4\n        /* \"#utility.yul\":18491:18558   */\n      tag_120\n      jump\t// in\n    tag_353:\n        /* \"#utility.yul\":18484:18558   */\n      swap2\n      pop\n        /* \"#utility.yul\":18567:18660   */\n      tag_354\n        /* \"#utility.yul\":18656:18659   */\n      dup3\n        /* \"#utility.yul\":18567:18660   */\n      tag_148\n      jump\t// in\n    tag_354:\n        /* \"#utility.yul\":18685:18687   */\n      0x20\n        /* \"#utility.yul\":18680:18683   */\n      dup3\n        /* \"#utility.yul\":18676:18688   */\n      add\n        /* \"#utility.yul\":18669:18688   */\n      swap1\n      pop\n        /* \"#utility.yul\":18328:18694   */\n      swap2\n      swap1\n      pop\n      jump\t// out\n        /* \"#utility.yul\":18700:19119   */\n    tag_73:\n        /* \"#utility.yul\":18866:18870   */\n      0x00\n        /* \"#utility.yul\":18904:18906   */\n      0x20\n        /* \"#utility.yul\":18893:18902   */\n      dup3\n        /* \"#utility.yul\":18889:18907   */\n      add\n        /* \"#utility.yul\":18881:18907   */\n      swap1\n      pop\n        /* \"#utility.yul\":18953:18962   */\n      dup2\n        /* \"#utility.yul\":18947:18951   */\n      dup2\n        /* \"#utility.yul\":18943:18963   */\n      sub\n        /* \"#utility.yul\":18939:18940   */\n      0x00\n        /* \"#utility.yul\":18928:18937   */\n      dup4\n        /* \"#utility.yul\":18924:18941   */\n      add\n        /* \"#utility.yul\":18917:18964   */\n      mstore\n        /* \"#utility.yul\":18981:19112   */\n      tag_356\n        /* \"#utility.yul\":19107:19111   */\n      dup2\n        /* \"#utility.yul\":18981:19112   */\n      tag_149\n      jump\t// in\n    tag_356:\n        /* \"#utility.yul\":18973:19112   */\n      swap1\n      pop\n        /* \"#utility.yul\":18700:19119   */\n      swap2\n      swap1\n      pop\n      jump\t// out\n\n    auxdata: 0xa26469706673582212206e0a42d26b98a7954676afa29d214804f031f8d392a1cadb16351c6689a5650f64736f6c63430008160033\n}\n",
				"bytecode": {
					"linkReferences": {},
					"object": "60806040525f6002555f60055f6101000a81548160ff02191690831515021790555034801561002c575f80fd5b50335f806101000a81548173ffffffffffffffffffffffffffffffffffffffff021916908373ffffffffffffffffffffffffffffffffffffffff16021790555061126e806100795f395ff3fe60806040526004361061007a575f3560e01c80636dd7edf11161004d5780636dd7edf1146100f65780637ab8d98e146101395780639344d6a71461014f578063c1cfb99a146101775761007a565b80630ac0b7b91461007e5780632f19d50b1461008857806350257e1f146100b057806357eb8211146100cc575b5f80fd5b6100866101a1565b005b348015610093575f80fd5b506100ae60048036038101906100a9919061096e565b6102c9565b005b6100ca60048036038101906100c59190610a36565b610351565b005b3480156100d7575f80fd5b506100e0610461565b6040516100ed9190610b06565b60405180910390f35b348015610101575f80fd5b5061011c60048036038101906101179190610b1f565b6104bf565b604051610130989796959493929190610bed565b60405180910390f35b348015610144575f80fd5b5061014d610646565b005b34801561015a575f80fd5b5061017560048036038101906101709190610c77565b61070e565b005b348015610182575f80fd5b5061018b6107c0565b6040516101989190610b06565b60405180910390f35b6001151560055f9054906101000a900460ff161515146101bf575f80fd5b5f60015f6101cb610461565b81526020019081526020015f2090505f1515816007015f9054906101000a900460ff16151514610230576040517f08c379a000000000000000000000000000000000000000000000000000000000815260040161022790610d49565b60405180910390fd5b8060060154341461023f575f80fd5b6001816007015f6101000a81548160ff021916908315150217905550806002015f9054906101000a900473ffffffffffffffffffffffffffffffffffffffff1673ffffffffffffffffffffffffffffffffffffffff166108fc826006015490811502906040515f60405180830381858888f193505050501580156102c5573d5f803e3d5ffd5b5050565b5f60035f60045481526020019081526020015f20905082815f015f6101000a81548173ffffffffffffffffffffffffffffffffffffffff021916908373ffffffffffffffffffffffffffffffffffffffff160217905550818160020190816103319190610f61565b50600160055f6101000a81548160ff021916908315150217905550505050565b5f60015f60025481526020019081526020015f20905060025f8154809291906103799061105d565b919050555086815f01908161038e9190610f61565b50858160010190816103a09190610f61565b5084816002015f6101000a81548173ffffffffffffffffffffffffffffffffffffffff021916908373ffffffffffffffffffffffffffffffffffffffff160217905550838160030181905550828160050181905550818160060181905550606482600561040d91906110a4565b6104179190611112565b3414610458576040517f08c379a000000000000000000000000000000000000000000000000000000000815260040161044f906111b2565b60405180910390fd5b50505050505050565b5f6001151560055f9054906101000a900460ff161515146104b7576040517f08c379a00000000000000000000000000000000000000000000000000000000081526004016104ae9061121a565b60405180910390fd5b600254905090565b6001602052805f5260405f205f91509050805f0180546104de90610d94565b80601f016020809104026020016040519081016040528092919081815260200182805461050a90610d94565b80156105555780601f1061052c57610100808354040283529160200191610555565b820191905f5260205f20905b81548152906001019060200180831161053857829003601f168201915b50505050509080600101805461056a90610d94565b80601f016020809104026020016040519081016040528092919081815260200182805461059690610d94565b80156105e15780601f106105b8576101008083540402835291602001916105e1565b820191905f5260205f20905b8154815290600101906020018083116105c457829003601f168201915b505050505090806002015f9054906101000a900473ffffffffffffffffffffffffffffffffffffffff1690806003015490806004015f9054906101000a900460ff1690806005015490806006015490806007015f9054906101000a900460ff16905088565b5f8054906101000a900473ffffffffffffffffffffffffffffffffffffffff1673ffffffffffffffffffffffffffffffffffffffff163373ffffffffffffffffffffffffffffffffffffffff161461069c575f80fd5b5f805f9054906101000a900473ffffffffffffffffffffffffffffffffffffffff1690508073ffffffffffffffffffffffffffffffffffffffff166108fc6106e26107c0565b90811502906040515f60405180830381858888f1935050505015801561070a573d5f803e3d5ffd5b5050565b5f60035f60045481526020019081526020015f20905060045f8154809291906107369061105d565b919050555083815f015f6101000a81548173ffffffffffffffffffffffffffffffffffffffff021916908373ffffffffffffffffffffffffffffffffffffffff1602179055508281600101908161078d9190610f61565b508181600201908161079f9190610f61565b50600160055f6101000a81548160ff02191690831515021790555050505050565b5f47905090565b5f604051905090565b5f80fd5b5f80fd5b5f73ffffffffffffffffffffffffffffffffffffffff82169050919050565b5f610801826107d8565b9050919050565b610811816107f7565b811461081b575f80fd5b50565b5f8135905061082c81610808565b92915050565b5f80fd5b5f80fd5b5f601f19601f8301169050919050565b7f4e487b71000000000000000000000000000000000000000000000000000000005f52604160045260245ffd5b6108808261083a565b810181811067ffffffffffffffff8211171561089f5761089e61084a565b5b80604052505050565b5f6108b16107c7565b90506108bd8282610877565b919050565b5f67ffffffffffffffff8211156108dc576108db61084a565b5b6108e58261083a565b9050602081019050919050565b828183375f83830152505050565b5f61091261090d846108c2565b6108a8565b90508281526020810184848401111561092e5761092d610836565b5b6109398482856108f2565b509392505050565b5f82601f83011261095557610954610832565b5b8135610965848260208601610900565b91505092915050565b5f8060408385031215610984576109836107d0565b5b5f6109918582860161081e565b925050602083013567ffffffffffffffff8111156109b2576109b16107d4565b5b6109be85828601610941565b9150509250929050565b5f6109d2826107d8565b9050919050565b6109e2816109c8565b81146109ec575f80fd5b50565b5f813590506109fd816109d9565b92915050565b5f819050919050565b610a1581610a03565b8114610a1f575f80fd5b50565b5f81359050610a3081610a0c565b92915050565b5f805f805f8060c08789031215610a5057610a4f6107d0565b5b5f87013567ffffffffffffffff811115610a6d57610a6c6107d4565b5b610a7989828a01610941565b965050602087013567ffffffffffffffff811115610a9a57610a996107d4565b5b610aa689828a01610941565b9550506040610ab789828a016109ef565b9450506060610ac889828a01610a22565b9350506080610ad989828a01610a22565b92505060a0610aea89828a01610a22565b9150509295509295509295565b610b0081610a03565b82525050565b5f602082019050610b195f830184610af7565b92915050565b5f60208284031215610b3457610b336107d0565b5b5f610b4184828501610a22565b91505092915050565b5f81519050919050565b5f82825260208201905092915050565b5f5b83811015610b81578082015181840152602081019050610b66565b5f8484015250505050565b5f610b9682610b4a565b610ba08185610b54565b9350610bb0818560208601610b64565b610bb98161083a565b840191505092915050565b610bcd816109c8565b82525050565b5f8115159050919050565b610be781610bd3565b82525050565b5f610100820190508181035f830152610c06818b610b8c565b90508181036020830152610c1a818a610b8c565b9050610c296040830189610bc4565b610c366060830188610af7565b610c436080830187610bde565b610c5060a0830186610af7565b610c5d60c0830185610af7565b610c6a60e0830184610bde565b9998505050505050505050565b5f805f60608486031215610c8e57610c8d6107d0565b5b5f610c9b8682870161081e565b935050602084013567ffffffffffffffff811115610cbc57610cbb6107d4565b5b610cc886828701610941565b925050604084013567ffffffffffffffff811115610ce957610ce86107d4565b5b610cf586828701610941565b9150509250925092565b7f546869732070726f6475637420697320616c726561647920736f6c64000000005f82015250565b5f610d33601c83610b54565b9150610d3e82610cff565b602082019050919050565b5f6020820190508181035f830152610d6081610d27565b9050919050565b7f4e487b71000000000000000000000000000000000000000000000000000000005f52602260045260245ffd5b5f6002820490506001821680610dab57607f821691505b602082108103610dbe57610dbd610d67565b5b50919050565b5f819050815f5260205f209050919050565b5f6020601f8301049050919050565b5f82821b905092915050565b5f60088302610e207fffffffffffffffffffffffffffffffffffffffffffffffffffffffffffffffff82610de5565b610e2a8683610de5565b95508019841693508086168417925050509392505050565b5f819050919050565b5f610e65610e60610e5b84610a03565b610e42565b610a03565b9050919050565b5f819050919050565b610e7e83610e4b565b610e92610e8a82610e6c565b848454610df1565b825550505050565b5f90565b610ea6610e9a565b610eb1818484610e75565b505050565b5b81811015610ed457610ec95f82610e9e565b600181019050610eb7565b5050565b601f821115610f1957610eea81610dc4565b610ef384610dd6565b81016020851015610f02578190505b610f16610f0e85610dd6565b830182610eb6565b50505b505050565b5f82821c905092915050565b5f610f395f1984600802610f1e565b1980831691505092915050565b5f610f518383610f2a565b9150826002028217905092915050565b610f6a82610b4a565b67ffffffffffffffff811115610f8357610f8261084a565b5b610f8d8254610d94565b610f98828285610ed8565b5f60209050601f831160018114610fc9575f8415610fb7578287015190505b610fc18582610f46565b865550611028565b601f198416610fd786610dc4565b5f5b82811015610ffe57848901518255600182019150602085019450602081019050610fd9565b8683101561101b5784890151611017601f891682610f2a565b8355505b6001600288020188555050505b505050505050565b7f4e487b71000000000000000000000000000000000000000000000000000000005f52601160045260245ffd5b5f61106782610a03565b91507fffffffffffffffffffffffffffffffffffffffffffffffffffffffffffffffff820361109957611098611030565b5b600182019050919050565b5f6110ae82610a03565b91506110b983610a03565b92508282026110c781610a03565b915082820484148315176110de576110dd611030565b5b5092915050565b7f4e487b71000000000000000000000000000000000000000000000000000000005f52601260045260245ffd5b5f61111c82610a03565b915061112783610a03565b925082611137576111366110e5565b5b828204905092915050565b7f506c656173652070617920746865206f6e6c79203525206f6620796f757220705f8201527f726f6475637420636f7374000000000000000000000000000000000000000000602082015250565b5f61119c602b83610b54565b91506111a782611142565b604082019050919050565b5f6020820190508181035f8301526111c981611190565b9050919050565b7f506c65617365206c6f67696e20666972737400000000000000000000000000005f82015250565b5f611204601283610b54565b915061120f826111d0565b602082019050919050565b5f6020820190508181035f830152611231816111f8565b905091905056fea26469706673582212206e0a42d26b98a7954676afa29d214804f031f8d392a1cadb16351c6689a5650f64736f6c63430008160033",
					"opcodes": "PUSH1 0x80 PUSH1 0x40 MSTORE PUSH0 PUSH1 0x2 SSTORE PUSH0 PUSH1 0x5 PUSH0 PUSH2 0x100 EXP DUP2 SLOAD DUP2 PUSH1 0xFF MUL NOT AND SWAP1 DUP4 ISZERO ISZERO MUL OR SWAP1 SSTORE POP CALLVALUE DUP1 ISZERO PUSH2 0x2C JUMPI PUSH0 DUP1 REVERT JUMPDEST POP CALLER PUSH0 DUP1 PUSH2 0x100 EXP DUP2 SLOAD DUP2 PUSH20 0xFFFFFFFFFFFFFFFFFFFFFFFFFFFFFFFFFFFFFFFF MUL NOT AND SWAP1 DUP4 PUSH20 0xFFFFFFFFFFFFFFFFFFFFFFFFFFFFFFFFFFFFFFFF AND MUL OR SWAP1 SSTORE POP PUSH2 0x126E DUP1 PUSH2 0x79 PUSH0 CODECOPY PUSH0 RETURN INVALID PUSH1 0x80 PUSH1 0x40 MSTORE PUSH1 0x4 CALLDATASIZE LT PUSH2 0x7A JUMPI PUSH0 CALLDATALOAD PUSH1 0xE0 SHR DUP1 PUSH4 0x6DD7EDF1 GT PUSH2 0x4D JUMPI DUP1 PUSH4 0x6DD7EDF1 EQ PUSH2 0xF6 JUMPI DUP1 PUSH4 0x7AB8D98E EQ PUSH2 0x139 JUMPI DUP1 PUSH4 0x9344D6A7 EQ PUSH2 0x14F JUMPI DUP1 PUSH4 0xC1CFB99A EQ PUSH2 0x177 JUMPI PUSH2 0x7A JUMP JUMPDEST DUP1 PUSH4 0xAC0B7B9 EQ PUSH2 0x7E JUMPI DUP1 PUSH4 0x2F19D50B EQ PUSH2 0x88 JUMPI DUP1 PUSH4 0x50257E1F EQ PUSH2 0xB0 JUMPI DUP1 PUSH4 0x57EB8211 EQ PUSH2 0xCC JUMPI JUMPDEST PUSH0 DUP1 REVERT JUMPDEST PUSH2 0x86 PUSH2 0x1A1 JUMP JUMPDEST STOP JUMPDEST CALLVALUE DUP1 ISZERO PUSH2 0x93 JUMPI PUSH0 DUP1 REVERT JUMPDEST POP PUSH2 0xAE PUSH1 0x4 DUP1 CALLDATASIZE SUB DUP2 ADD SWAP1 PUSH2 0xA9 SWAP2 SWAP1 PUSH2 0x96E JUMP JUMPDEST PUSH2 0x2C9 JUMP JUMPDEST STOP JUMPDEST PUSH2 0xCA PUSH1 0x4 DUP1 CALLDATASIZE SUB DUP2 ADD SWAP1 PUSH2 0xC5 SWAP2 SWAP1 PUSH2 0xA36 JUMP JUMPDEST PUSH2 0x351 JUMP JUMPDEST STOP JUMPDEST CALLVALUE DUP1 ISZERO PUSH2 0xD7 JUMPI PUSH0 DUP1 REVERT JUMPDEST POP PUSH2 0xE0 PUSH2 0x461 JUMP JUMPDEST PUSH1 0x40 MLOAD PUSH2 0xED SWAP2 SWAP1 PUSH2 0xB06 JUMP JUMPDEST PUSH1 0x40 MLOAD DUP1 SWAP2 SUB SWAP1 RETURN JUMPDEST CALLVALUE DUP1 ISZERO PUSH2 0x101 JUMPI PUSH0 DUP1 REVERT JUMPDEST POP PUSH2 0x11C PUSH1 0x4 DUP1 CALLDATASIZE SUB DUP2 ADD SWAP1 PUSH2 0x117 SWAP2 SWAP1 PUSH2 0xB1F JUMP JUMPDEST PUSH2 0x4BF JUMP JUMPDEST PUSH1 0x40 MLOAD PUSH2 0x130 SWAP9 SWAP8 SWAP7 SWAP6 SWAP5 SWAP4 SWAP3 SWAP2 SWAP1 PUSH2 0xBED JUMP JUMPDEST PUSH1 0x40 MLOAD DUP1 SWAP2 SUB SWAP1 RETURN JUMPDEST CALLVALUE DUP1 ISZERO PUSH2 0x144 JUMPI PUSH0 DUP1 REVERT JUMPDEST POP PUSH2 0x14D PUSH2 0x646 JUMP JUMPDEST STOP JUMPDEST CALLVALUE DUP1 ISZERO PUSH2 0x15A JUMPI PUSH0 DUP1 REVERT JUMPDEST POP PUSH2 0x175 PUSH1 0x4 DUP1 CALLDATASIZE SUB DUP2 ADD SWAP1 PUSH2 0x170 SWAP2 SWAP1 PUSH2 0xC77 JUMP JUMPDEST PUSH2 0x70E JUMP JUMPDEST STOP JUMPDEST CALLVALUE DUP1 ISZERO PUSH2 0x182 JUMPI PUSH0 DUP1 REVERT JUMPDEST POP PUSH2 0x18B PUSH2 0x7C0 JUMP JUMPDEST PUSH1 0x40 MLOAD PUSH2 0x198 SWAP2 SWAP1 PUSH2 0xB06 JUMP JUMPDEST PUSH1 0x40 MLOAD DUP1 SWAP2 SUB SWAP1 RETURN JUMPDEST PUSH1 0x1 ISZERO ISZERO PUSH1 0x5 PUSH0 SWAP1 SLOAD SWAP1 PUSH2 0x100 EXP SWAP1 DIV PUSH1 0xFF AND ISZERO ISZERO EQ PUSH2 0x1BF JUMPI PUSH0 DUP1 REVERT JUMPDEST PUSH0 PUSH1 0x1 PUSH0 PUSH2 0x1CB PUSH2 0x461 JUMP JUMPDEST DUP2 MSTORE PUSH1 0x20 ADD SWAP1 DUP2 MSTORE PUSH1 0x20 ADD PUSH0 KECCAK256 SWAP1 POP PUSH0 ISZERO ISZERO DUP2 PUSH1 0x7 ADD PUSH0 SWAP1 SLOAD SWAP1 PUSH2 0x100 EXP SWAP1 DIV PUSH1 0xFF AND ISZERO ISZERO EQ PUSH2 0x230 JUMPI PUSH1 0x40 MLOAD PUSH32 0x8C379A000000000000000000000000000000000000000000000000000000000 DUP2 MSTORE PUSH1 0x4 ADD PUSH2 0x227 SWAP1 PUSH2 0xD49 JUMP JUMPDEST PUSH1 0x40 MLOAD DUP1 SWAP2 SUB SWAP1 REVERT JUMPDEST DUP1 PUSH1 0x6 ADD SLOAD CALLVALUE EQ PUSH2 0x23F JUMPI PUSH0 DUP1 REVERT JUMPDEST PUSH1 0x1 DUP2 PUSH1 0x7 ADD PUSH0 PUSH2 0x100 EXP DUP2 SLOAD DUP2 PUSH1 0xFF MUL NOT AND SWAP1 DUP4 ISZERO ISZERO MUL OR SWAP1 SSTORE POP DUP1 PUSH1 0x2 ADD PUSH0 SWAP1 SLOAD SWAP1 PUSH2 0x100 EXP SWAP1 DIV PUSH20 0xFFFFFFFFFFFFFFFFFFFFFFFFFFFFFFFFFFFFFFFF AND PUSH20 0xFFFFFFFFFFFFFFFFFFFFFFFFFFFFFFFFFFFFFFFF AND PUSH2 0x8FC DUP3 PUSH1 0x6 ADD SLOAD SWAP1 DUP2 ISZERO MUL SWAP1 PUSH1 0x40 MLOAD PUSH0 PUSH1 0x40 MLOAD DUP1 DUP4 SUB DUP2 DUP6 DUP9 DUP9 CALL SWAP4 POP POP POP POP ISZERO DUP1 ISZERO PUSH2 0x2C5 JUMPI RETURNDATASIZE PUSH0 DUP1 RETURNDATACOPY RETURNDATASIZE PUSH0 REVERT JUMPDEST POP POP JUMP JUMPDEST PUSH0 PUSH1 0x3 PUSH0 PUSH1 0x4 SLOAD DUP2 MSTORE PUSH1 0x20 ADD SWAP1 DUP2 MSTORE PUSH1 0x20 ADD PUSH0 KECCAK256 SWAP1 POP DUP3 DUP2 PUSH0 ADD PUSH0 PUSH2 0x100 EXP DUP2 SLOAD DUP2 PUSH20 0xFFFFFFFFFFFFFFFFFFFFFFFFFFFFFFFFFFFFFFFF MUL NOT AND SWAP1 DUP4 PUSH20 0xFFFFFFFFFFFFFFFFFFFFFFFFFFFFFFFFFFFFFFFF AND MUL OR SWAP1 SSTORE POP DUP2 DUP2 PUSH1 0x2 ADD SWAP1 DUP2 PUSH2 0x331 SWAP2 SWAP1 PUSH2 0xF61 JUMP JUMPDEST POP PUSH1 0x1 PUSH1 0x5 PUSH0 PUSH2 0x100 EXP DUP2 SLOAD DUP2 PUSH1 0xFF MUL NOT AND SWAP1 DUP4 ISZERO ISZERO MUL OR SWAP1 SSTORE POP POP POP POP JUMP JUMPDEST PUSH0 PUSH1 0x1 PUSH0 PUSH1 0x2 SLOAD DUP2 MSTORE PUSH1 0x20 ADD SWAP1 DUP2 MSTORE PUSH1 0x20 ADD PUSH0 KECCAK256 SWAP1 POP PUSH1 0x2 PUSH0 DUP2 SLOAD DUP1 SWAP3 SWAP2 SWAP1 PUSH2 0x379 SWAP1 PUSH2 0x105D JUMP JUMPDEST SWAP2 SWAP1 POP SSTORE POP DUP7 DUP2 PUSH0 ADD SWAP1 DUP2 PUSH2 0x38E SWAP2 SWAP1 PUSH2 0xF61 JUMP JUMPDEST POP DUP6 DUP2 PUSH1 0x1 ADD SWAP1 DUP2 PUSH2 0x3A0 SWAP2 SWAP1 PUSH2 0xF61 JUMP JUMPDEST POP DUP5 DUP2 PUSH1 0x2 ADD PUSH0 PUSH2 0x100 EXP DUP2 SLOAD DUP2 PUSH20 0xFFFFFFFFFFFFFFFFFFFFFFFFFFFFFFFFFFFFFFFF MUL NOT AND SWAP1 DUP4 PUSH20 0xFFFFFFFFFFFFFFFFFFFFFFFFFFFFFFFFFFFFFFFF AND MUL OR SWAP1 SSTORE POP DUP4 DUP2 PUSH1 0x3 ADD DUP2 SWAP1 SSTORE POP DUP3 DUP2 PUSH1 0x5 ADD DUP2 SWAP1 SSTORE POP DUP2 DUP2 PUSH1 0x6 ADD DUP2 SWAP1 SSTORE POP PUSH1 0x64 DUP3 PUSH1 0x5 PUSH2 0x40D SWAP2 SWAP1 PUSH2 0x10A4 JUMP JUMPDEST PUSH2 0x417 SWAP2 SWAP1 PUSH2 0x1112 JUMP JUMPDEST CALLVALUE EQ PUSH2 0x458 JUMPI PUSH1 0x40 MLOAD PUSH32 0x8C379A000000000000000000000000000000000000000000000000000000000 DUP2 MSTORE PUSH1 0x4 ADD PUSH2 0x44F SWAP1 PUSH2 0x11B2 JUMP JUMPDEST PUSH1 0x40 MLOAD DUP1 SWAP2 SUB SWAP1 REVERT JUMPDEST POP POP POP POP POP POP POP JUMP JUMPDEST PUSH0 PUSH1 0x1 ISZERO ISZERO PUSH1 0x5 PUSH0 SWAP1 SLOAD SWAP1 PUSH2 0x100 EXP SWAP1 DIV PUSH1 0xFF AND ISZERO ISZERO EQ PUSH2 0x4B7 JUMPI PUSH1 0x40 MLOAD PUSH32 0x8C379A000000000000000000000000000000000000000000000000000000000 DUP2 MSTORE PUSH1 0x4 ADD PUSH2 0x4AE SWAP1 PUSH2 0x121A JUMP JUMPDEST PUSH1 0x40 MLOAD DUP1 SWAP2 SUB SWAP1 REVERT JUMPDEST PUSH1 0x2 SLOAD SWAP1 POP SWAP1 JUMP JUMPDEST PUSH1 0x1 PUSH1 0x20 MSTORE DUP1 PUSH0 MSTORE PUSH1 0x40 PUSH0 KECCAK256 PUSH0 SWAP2 POP SWAP1 POP DUP1 PUSH0 ADD DUP1 SLOAD PUSH2 0x4DE SWAP1 PUSH2 0xD94 JUMP JUMPDEST DUP1 PUSH1 0x1F ADD PUSH1 0x20 DUP1 SWAP2 DIV MUL PUSH1 0x20 ADD PUSH1 0x40 MLOAD SWAP1 DUP2 ADD PUSH1 0x40 MSTORE DUP1 SWAP3 SWAP2 SWAP1 DUP2 DUP2 MSTORE PUSH1 0x20 ADD DUP3 DUP1 SLOAD PUSH2 0x50A SWAP1 PUSH2 0xD94 JUMP JUMPDEST DUP1 ISZERO PUSH2 0x555 JUMPI DUP1 PUSH1 0x1F LT PUSH2 0x52C JUMPI PUSH2 0x100 DUP1 DUP4 SLOAD DIV MUL DUP4 MSTORE SWAP2 PUSH1 0x20 ADD SWAP2 PUSH2 0x555 JUMP JUMPDEST DUP3 ADD SWAP2 SWAP1 PUSH0 MSTORE PUSH1 0x20 PUSH0 KECCAK256 SWAP1 JUMPDEST DUP2 SLOAD DUP2 MSTORE SWAP1 PUSH1 0x1 ADD SWAP1 PUSH1 0x20 ADD DUP1 DUP4 GT PUSH2 0x538 JUMPI DUP3 SWAP1 SUB PUSH1 0x1F AND DUP3 ADD SWAP2 JUMPDEST POP POP POP POP POP SWAP1 DUP1 PUSH1 0x1 ADD DUP1 SLOAD PUSH2 0x56A SWAP1 PUSH2 0xD94 JUMP JUMPDEST DUP1 PUSH1 0x1F ADD PUSH1 0x20 DUP1 SWAP2 DIV MUL PUSH1 0x20 ADD PUSH1 0x40 MLOAD SWAP1 DUP2 ADD PUSH1 0x40 MSTORE DUP1 SWAP3 SWAP2 SWAP1 DUP2 DUP2 MSTORE PUSH1 0x20 ADD DUP3 DUP1 SLOAD PUSH2 0x596 SWAP1 PUSH2 0xD94 JUMP JUMPDEST DUP1 ISZERO PUSH2 0x5E1 JUMPI DUP1 PUSH1 0x1F LT PUSH2 0x5B8 JUMPI PUSH2 0x100 DUP1 DUP4 SLOAD DIV MUL DUP4 MSTORE SWAP2 PUSH1 0x20 ADD SWAP2 PUSH2 0x5E1 JUMP JUMPDEST DUP3 ADD SWAP2 SWAP1 PUSH0 MSTORE PUSH1 0x20 PUSH0 KECCAK256 SWAP1 JUMPDEST DUP2 SLOAD DUP2 MSTORE SWAP1 PUSH1 0x1 ADD SWAP1 PUSH1 0x20 ADD DUP1 DUP4 GT PUSH2 0x5C4 JUMPI DUP3 SWAP1 SUB PUSH1 0x1F AND DUP3 ADD SWAP2 JUMPDEST POP POP POP POP POP SWAP1 DUP1 PUSH1 0x2 ADD PUSH0 SWAP1 SLOAD SWAP1 PUSH2 0x100 EXP SWAP1 DIV PUSH20 0xFFFFFFFFFFFFFFFFFFFFFFFFFFFFFFFFFFFFFFFF AND SWAP1 DUP1 PUSH1 0x3 ADD SLOAD SWAP1 DUP1 PUSH1 0x4 ADD PUSH0 SWAP1 SLOAD SWAP1 PUSH2 0x100 EXP SWAP1 DIV PUSH1 0xFF AND SWAP1 DUP1 PUSH1 0x5 ADD SLOAD SWAP1 DUP1 PUSH1 0x6 ADD SLOAD SWAP1 DUP1 PUSH1 0x7 ADD PUSH0 SWAP1 SLOAD SWAP1 PUSH2 0x100 EXP SWAP1 DIV PUSH1 0xFF AND SWAP1 POP DUP9 JUMP JUMPDEST PUSH0 DUP1 SLOAD SWAP1 PUSH2 0x100 EXP SWAP1 DIV PUSH20 0xFFFFFFFFFFFFFFFFFFFFFFFFFFFFFFFFFFFFFFFF AND PUSH20 0xFFFFFFFFFFFFFFFFFFFFFFFFFFFFFFFFFFFFFFFF AND CALLER PUSH20 0xFFFFFFFFFFFFFFFFFFFFFFFFFFFFFFFFFFFFFFFF AND EQ PUSH2 0x69C JUMPI PUSH0 DUP1 REVERT JUMPDEST PUSH0 DUP1 PUSH0 SWAP1 SLOAD SWAP1 PUSH2 0x100 EXP SWAP1 DIV PUSH20 0xFFFFFFFFFFFFFFFFFFFFFFFFFFFFFFFFFFFFFFFF AND SWAP1 POP DUP1 PUSH20 0xFFFFFFFFFFFFFFFFFFFFFFFFFFFFFFFFFFFFFFFF AND PUSH2 0x8FC PUSH2 0x6E2 PUSH2 0x7C0 JUMP JUMPDEST SWAP1 DUP2 ISZERO MUL SWAP1 PUSH1 0x40 MLOAD PUSH0 PUSH1 0x40 MLOAD DUP1 DUP4 SUB DUP2 DUP6 DUP9 DUP9 CALL SWAP4 POP POP POP POP ISZERO DUP1 ISZERO PUSH2 0x70A JUMPI RETURNDATASIZE PUSH0 DUP1 RETURNDATACOPY RETURNDATASIZE PUSH0 REVERT JUMPDEST POP POP JUMP JUMPDEST PUSH0 PUSH1 0x3 PUSH0 PUSH1 0x4 SLOAD DUP2 MSTORE PUSH1 0x20 ADD SWAP1 DUP2 MSTORE PUSH1 0x20 ADD PUSH0 KECCAK256 SWAP1 POP PUSH1 0x4 PUSH0 DUP2 SLOAD DUP1 SWAP3 SWAP2 SWAP1 PUSH2 0x736 SWAP1 PUSH2 0x105D JUMP JUMPDEST SWAP2 SWAP1 POP SSTORE POP DUP4 DUP2 PUSH0 ADD PUSH0 PUSH2 0x100 EXP DUP2 SLOAD DUP2 PUSH20 0xFFFFFFFFFFFFFFFFFFFFFFFFFFFFFFFFFFFFFFFF MUL NOT AND SWAP1 DUP4 PUSH20 0xFFFFFFFFFFFFFFFFFFFFFFFFFFFFFFFFFFFFFFFF AND MUL OR SWAP1 SSTORE POP DUP3 DUP2 PUSH1 0x1 ADD SWAP1 DUP2 PUSH2 0x78D SWAP2 SWAP1 PUSH2 0xF61 JUMP JUMPDEST POP DUP2 DUP2 PUSH1 0x2 ADD SWAP1 DUP2 PUSH2 0x79F SWAP2 SWAP1 PUSH2 0xF61 JUMP JUMPDEST POP PUSH1 0x1 PUSH1 0x5 PUSH0 PUSH2 0x100 EXP DUP2 SLOAD DUP2 PUSH1 0xFF MUL NOT AND SWAP1 DUP4 ISZERO ISZERO MUL OR SWAP1 SSTORE POP POP POP POP POP JUMP JUMPDEST PUSH0 SELFBALANCE SWAP1 POP SWAP1 JUMP JUMPDEST PUSH0 PUSH1 0x40 MLOAD SWAP1 POP SWAP1 JUMP JUMPDEST PUSH0 DUP1 REVERT JUMPDEST PUSH0 DUP1 REVERT JUMPDEST PUSH0 PUSH20 0xFFFFFFFFFFFFFFFFFFFFFFFFFFFFFFFFFFFFFFFF DUP3 AND SWAP1 POP SWAP2 SWAP1 POP JUMP JUMPDEST PUSH0 PUSH2 0x801 DUP3 PUSH2 0x7D8 JUMP JUMPDEST SWAP1 POP SWAP2 SWAP1 POP JUMP JUMPDEST PUSH2 0x811 DUP2 PUSH2 0x7F7 JUMP JUMPDEST DUP2 EQ PUSH2 0x81B JUMPI PUSH0 DUP1 REVERT JUMPDEST POP JUMP JUMPDEST PUSH0 DUP2 CALLDATALOAD SWAP1 POP PUSH2 0x82C DUP2 PUSH2 0x808 JUMP JUMPDEST SWAP3 SWAP2 POP POP JUMP JUMPDEST PUSH0 DUP1 REVERT JUMPDEST PUSH0 DUP1 REVERT JUMPDEST PUSH0 PUSH1 0x1F NOT PUSH1 0x1F DUP4 ADD AND SWAP1 POP SWAP2 SWAP1 POP JUMP JUMPDEST PUSH32 0x4E487B7100000000000000000000000000000000000000000000000000000000 PUSH0 MSTORE PUSH1 0x41 PUSH1 0x4 MSTORE PUSH1 0x24 PUSH0 REVERT JUMPDEST PUSH2 0x880 DUP3 PUSH2 0x83A JUMP JUMPDEST DUP2 ADD DUP2 DUP2 LT PUSH8 0xFFFFFFFFFFFFFFFF DUP3 GT OR ISZERO PUSH2 0x89F JUMPI PUSH2 0x89E PUSH2 0x84A JUMP JUMPDEST JUMPDEST DUP1 PUSH1 0x40 MSTORE POP POP POP JUMP JUMPDEST PUSH0 PUSH2 0x8B1 PUSH2 0x7C7 JUMP JUMPDEST SWAP1 POP PUSH2 0x8BD DUP3 DUP3 PUSH2 0x877 JUMP JUMPDEST SWAP2 SWAP1 POP JUMP JUMPDEST PUSH0 PUSH8 0xFFFFFFFFFFFFFFFF DUP3 GT ISZERO PUSH2 0x8DC JUMPI PUSH2 0x8DB PUSH2 0x84A JUMP JUMPDEST JUMPDEST PUSH2 0x8E5 DUP3 PUSH2 0x83A JUMP JUMPDEST SWAP1 POP PUSH1 0x20 DUP2 ADD SWAP1 POP SWAP2 SWAP1 POP JUMP JUMPDEST DUP3 DUP2 DUP4 CALLDATACOPY PUSH0 DUP4 DUP4 ADD MSTORE POP POP POP JUMP JUMPDEST PUSH0 PUSH2 0x912 PUSH2 0x90D DUP5 PUSH2 0x8C2 JUMP JUMPDEST PUSH2 0x8A8 JUMP JUMPDEST SWAP1 POP DUP3 DUP2 MSTORE PUSH1 0x20 DUP2 ADD DUP5 DUP5 DUP5 ADD GT ISZERO PUSH2 0x92E JUMPI PUSH2 0x92D PUSH2 0x836 JUMP JUMPDEST JUMPDEST PUSH2 0x939 DUP5 DUP3 DUP6 PUSH2 0x8F2 JUMP JUMPDEST POP SWAP4 SWAP3 POP POP POP JUMP JUMPDEST PUSH0 DUP3 PUSH1 0x1F DUP4 ADD SLT PUSH2 0x955 JUMPI PUSH2 0x954 PUSH2 0x832 JUMP JUMPDEST JUMPDEST DUP2 CALLDATALOAD PUSH2 0x965 DUP5 DUP3 PUSH1 0x20 DUP7 ADD PUSH2 0x900 JUMP JUMPDEST SWAP2 POP POP SWAP3 SWAP2 POP POP JUMP JUMPDEST PUSH0 DUP1 PUSH1 0x40 DUP4 DUP6 SUB SLT ISZERO PUSH2 0x984 JUMPI PUSH2 0x983 PUSH2 0x7D0 JUMP JUMPDEST JUMPDEST PUSH0 PUSH2 0x991 DUP6 DUP3 DUP7 ADD PUSH2 0x81E JUMP JUMPDEST SWAP3 POP POP PUSH1 0x20 DUP4 ADD CALLDATALOAD PUSH8 0xFFFFFFFFFFFFFFFF DUP2 GT ISZERO PUSH2 0x9B2 JUMPI PUSH2 0x9B1 PUSH2 0x7D4 JUMP JUMPDEST JUMPDEST PUSH2 0x9BE DUP6 DUP3 DUP7 ADD PUSH2 0x941 JUMP JUMPDEST SWAP2 POP POP SWAP3 POP SWAP3 SWAP1 POP JUMP JUMPDEST PUSH0 PUSH2 0x9D2 DUP3 PUSH2 0x7D8 JUMP JUMPDEST SWAP1 POP SWAP2 SWAP1 POP JUMP JUMPDEST PUSH2 0x9E2 DUP2 PUSH2 0x9C8 JUMP JUMPDEST DUP2 EQ PUSH2 0x9EC JUMPI PUSH0 DUP1 REVERT JUMPDEST POP JUMP JUMPDEST PUSH0 DUP2 CALLDATALOAD SWAP1 POP PUSH2 0x9FD DUP2 PUSH2 0x9D9 JUMP JUMPDEST SWAP3 SWAP2 POP POP JUMP JUMPDEST PUSH0 DUP2 SWAP1 POP SWAP2 SWAP1 POP JUMP JUMPDEST PUSH2 0xA15 DUP2 PUSH2 0xA03 JUMP JUMPDEST DUP2 EQ PUSH2 0xA1F JUMPI PUSH0 DUP1 REVERT JUMPDEST POP JUMP JUMPDEST PUSH0 DUP2 CALLDATALOAD SWAP1 POP PUSH2 0xA30 DUP2 PUSH2 0xA0C JUMP JUMPDEST SWAP3 SWAP2 POP POP JUMP JUMPDEST PUSH0 DUP1 PUSH0 DUP1 PUSH0 DUP1 PUSH1 0xC0 DUP8 DUP10 SUB SLT ISZERO PUSH2 0xA50 JUMPI PUSH2 0xA4F PUSH2 0x7D0 JUMP JUMPDEST JUMPDEST PUSH0 DUP8 ADD CALLDATALOAD PUSH8 0xFFFFFFFFFFFFFFFF DUP2 GT ISZERO PUSH2 0xA6D JUMPI PUSH2 0xA6C PUSH2 0x7D4 JUMP JUMPDEST JUMPDEST PUSH2 0xA79 DUP10 DUP3 DUP11 ADD PUSH2 0x941 JUMP JUMPDEST SWAP7 POP POP PUSH1 0x20 DUP8 ADD CALLDATALOAD PUSH8 0xFFFFFFFFFFFFFFFF DUP2 GT ISZERO PUSH2 0xA9A JUMPI PUSH2 0xA99 PUSH2 0x7D4 JUMP JUMPDEST JUMPDEST PUSH2 0xAA6 DUP10 DUP3 DUP11 ADD PUSH2 0x941 JUMP JUMPDEST SWAP6 POP POP PUSH1 0x40 PUSH2 0xAB7 DUP10 DUP3 DUP11 ADD PUSH2 0x9EF JUMP JUMPDEST SWAP5 POP POP PUSH1 0x60 PUSH2 0xAC8 DUP10 DUP3 DUP11 ADD PUSH2 0xA22 JUMP JUMPDEST SWAP4 POP POP PUSH1 0x80 PUSH2 0xAD9 DUP10 DUP3 DUP11 ADD PUSH2 0xA22 JUMP JUMPDEST SWAP3 POP POP PUSH1 0xA0 PUSH2 0xAEA DUP10 DUP3 DUP11 ADD PUSH2 0xA22 JUMP JUMPDEST SWAP2 POP POP SWAP3 SWAP6 POP SWAP3 SWAP6 POP SWAP3 SWAP6 JUMP JUMPDEST PUSH2 0xB00 DUP2 PUSH2 0xA03 JUMP JUMPDEST DUP3 MSTORE POP POP JUMP JUMPDEST PUSH0 PUSH1 0x20 DUP3 ADD SWAP1 POP PUSH2 0xB19 PUSH0 DUP4 ADD DUP5 PUSH2 0xAF7 JUMP JUMPDEST SWAP3 SWAP2 POP POP JUMP JUMPDEST PUSH0 PUSH1 0x20 DUP3 DUP5 SUB SLT ISZERO PUSH2 0xB34 JUMPI PUSH2 0xB33 PUSH2 0x7D0 JUMP JUMPDEST JUMPDEST PUSH0 PUSH2 0xB41 DUP5 DUP3 DUP6 ADD PUSH2 0xA22 JUMP JUMPDEST SWAP2 POP POP SWAP3 SWAP2 POP POP JUMP JUMPDEST PUSH0 DUP2 MLOAD SWAP1 POP SWAP2 SWAP1 POP JUMP JUMPDEST PUSH0 DUP3 DUP3 MSTORE PUSH1 0x20 DUP3 ADD SWAP1 POP SWAP3 SWAP2 POP POP JUMP JUMPDEST PUSH0 JUMPDEST DUP4 DUP2 LT ISZERO PUSH2 0xB81 JUMPI DUP1 DUP3 ADD MLOAD DUP2 DUP5 ADD MSTORE PUSH1 0x20 DUP2 ADD SWAP1 POP PUSH2 0xB66 JUMP JUMPDEST PUSH0 DUP5 DUP5 ADD MSTORE POP POP POP POP JUMP JUMPDEST PUSH0 PUSH2 0xB96 DUP3 PUSH2 0xB4A JUMP JUMPDEST PUSH2 0xBA0 DUP2 DUP6 PUSH2 0xB54 JUMP JUMPDEST SWAP4 POP PUSH2 0xBB0 DUP2 DUP6 PUSH1 0x20 DUP7 ADD PUSH2 0xB64 JUMP JUMPDEST PUSH2 0xBB9 DUP2 PUSH2 0x83A JUMP JUMPDEST DUP5 ADD SWAP2 POP POP SWAP3 SWAP2 POP POP JUMP JUMPDEST PUSH2 0xBCD DUP2 PUSH2 0x9C8 JUMP JUMPDEST DUP3 MSTORE POP POP JUMP JUMPDEST PUSH0 DUP2 ISZERO ISZERO SWAP1 POP SWAP2 SWAP1 POP JUMP JUMPDEST PUSH2 0xBE7 DUP2 PUSH2 0xBD3 JUMP JUMPDEST DUP3 MSTORE POP POP JUMP JUMPDEST PUSH0 PUSH2 0x100 DUP3 ADD SWAP1 POP DUP2 DUP2 SUB PUSH0 DUP4 ADD MSTORE PUSH2 0xC06 DUP2 DUP12 PUSH2 0xB8C JUMP JUMPDEST SWAP1 POP DUP2 DUP2 SUB PUSH1 0x20 DUP4 ADD MSTORE PUSH2 0xC1A DUP2 DUP11 PUSH2 0xB8C JUMP JUMPDEST SWAP1 POP PUSH2 0xC29 PUSH1 0x40 DUP4 ADD DUP10 PUSH2 0xBC4 JUMP JUMPDEST PUSH2 0xC36 PUSH1 0x60 DUP4 ADD DUP9 PUSH2 0xAF7 JUMP JUMPDEST PUSH2 0xC43 PUSH1 0x80 DUP4 ADD DUP8 PUSH2 0xBDE JUMP JUMPDEST PUSH2 0xC50 PUSH1 0xA0 DUP4 ADD DUP7 PUSH2 0xAF7 JUMP JUMPDEST PUSH2 0xC5D PUSH1 0xC0 DUP4 ADD DUP6 PUSH2 0xAF7 JUMP JUMPDEST PUSH2 0xC6A PUSH1 0xE0 DUP4 ADD DUP5 PUSH2 0xBDE JUMP JUMPDEST SWAP10 SWAP9 POP POP POP POP POP POP POP POP POP JUMP JUMPDEST PUSH0 DUP1 PUSH0 PUSH1 0x60 DUP5 DUP7 SUB SLT ISZERO PUSH2 0xC8E JUMPI PUSH2 0xC8D PUSH2 0x7D0 JUMP JUMPDEST JUMPDEST PUSH0 PUSH2 0xC9B DUP7 DUP3 DUP8 ADD PUSH2 0x81E JUMP JUMPDEST SWAP4 POP POP PUSH1 0x20 DUP5 ADD CALLDATALOAD PUSH8 0xFFFFFFFFFFFFFFFF DUP2 GT ISZERO PUSH2 0xCBC JUMPI PUSH2 0xCBB PUSH2 0x7D4 JUMP JUMPDEST JUMPDEST PUSH2 0xCC8 DUP7 DUP3 DUP8 ADD PUSH2 0x941 JUMP JUMPDEST SWAP3 POP POP PUSH1 0x40 DUP5 ADD CALLDATALOAD PUSH8 0xFFFFFFFFFFFFFFFF DUP2 GT ISZERO PUSH2 0xCE9 JUMPI PUSH2 0xCE8 PUSH2 0x7D4 JUMP JUMPDEST JUMPDEST PUSH2 0xCF5 DUP7 DUP3 DUP8 ADD PUSH2 0x941 JUMP JUMPDEST SWAP2 POP POP SWAP3 POP SWAP3 POP SWAP3 JUMP JUMPDEST PUSH32 0x546869732070726F6475637420697320616C726561647920736F6C6400000000 PUSH0 DUP3 ADD MSTORE POP JUMP JUMPDEST PUSH0 PUSH2 0xD33 PUSH1 0x1C DUP4 PUSH2 0xB54 JUMP JUMPDEST SWAP2 POP PUSH2 0xD3E DUP3 PUSH2 0xCFF JUMP JUMPDEST PUSH1 0x20 DUP3 ADD SWAP1 POP SWAP2 SWAP1 POP JUMP JUMPDEST PUSH0 PUSH1 0x20 DUP3 ADD SWAP1 POP DUP2 DUP2 SUB PUSH0 DUP4 ADD MSTORE PUSH2 0xD60 DUP2 PUSH2 0xD27 JUMP JUMPDEST SWAP1 POP SWAP2 SWAP1 POP JUMP JUMPDEST PUSH32 0x4E487B7100000000000000000000000000000000000000000000000000000000 PUSH0 MSTORE PUSH1 0x22 PUSH1 0x4 MSTORE PUSH1 0x24 PUSH0 REVERT JUMPDEST PUSH0 PUSH1 0x2 DUP3 DIV SWAP1 POP PUSH1 0x1 DUP3 AND DUP1 PUSH2 0xDAB JUMPI PUSH1 0x7F DUP3 AND SWAP2 POP JUMPDEST PUSH1 0x20 DUP3 LT DUP2 SUB PUSH2 0xDBE JUMPI PUSH2 0xDBD PUSH2 0xD67 JUMP JUMPDEST JUMPDEST POP SWAP2 SWAP1 POP JUMP JUMPDEST PUSH0 DUP2 SWAP1 POP DUP2 PUSH0 MSTORE PUSH1 0x20 PUSH0 KECCAK256 SWAP1 POP SWAP2 SWAP1 POP JUMP JUMPDEST PUSH0 PUSH1 0x20 PUSH1 0x1F DUP4 ADD DIV SWAP1 POP SWAP2 SWAP1 POP JUMP JUMPDEST PUSH0 DUP3 DUP3 SHL SWAP1 POP SWAP3 SWAP2 POP POP JUMP JUMPDEST PUSH0 PUSH1 0x8 DUP4 MUL PUSH2 0xE20 PUSH32 0xFFFFFFFFFFFFFFFFFFFFFFFFFFFFFFFFFFFFFFFFFFFFFFFFFFFFFFFFFFFFFFFF DUP3 PUSH2 0xDE5 JUMP JUMPDEST PUSH2 0xE2A DUP7 DUP4 PUSH2 0xDE5 JUMP JUMPDEST SWAP6 POP DUP1 NOT DUP5 AND SWAP4 POP DUP1 DUP7 AND DUP5 OR SWAP3 POP POP POP SWAP4 SWAP3 POP POP POP JUMP JUMPDEST PUSH0 DUP2 SWAP1 POP SWAP2 SWAP1 POP JUMP JUMPDEST PUSH0 PUSH2 0xE65 PUSH2 0xE60 PUSH2 0xE5B DUP5 PUSH2 0xA03 JUMP JUMPDEST PUSH2 0xE42 JUMP JUMPDEST PUSH2 0xA03 JUMP JUMPDEST SWAP1 POP SWAP2 SWAP1 POP JUMP JUMPDEST PUSH0 DUP2 SWAP1 POP SWAP2 SWAP1 POP JUMP JUMPDEST PUSH2 0xE7E DUP4 PUSH2 0xE4B JUMP JUMPDEST PUSH2 0xE92 PUSH2 0xE8A DUP3 PUSH2 0xE6C JUMP JUMPDEST DUP5 DUP5 SLOAD PUSH2 0xDF1 JUMP JUMPDEST DUP3 SSTORE POP POP POP POP JUMP JUMPDEST PUSH0 SWAP1 JUMP JUMPDEST PUSH2 0xEA6 PUSH2 0xE9A JUMP JUMPDEST PUSH2 0xEB1 DUP2 DUP5 DUP5 PUSH2 0xE75 JUMP JUMPDEST POP POP POP JUMP JUMPDEST JUMPDEST DUP2 DUP2 LT ISZERO PUSH2 0xED4 JUMPI PUSH2 0xEC9 PUSH0 DUP3 PUSH2 0xE9E JUMP JUMPDEST PUSH1 0x1 DUP2 ADD SWAP1 POP PUSH2 0xEB7 JUMP JUMPDEST POP POP JUMP JUMPDEST PUSH1 0x1F DUP3 GT ISZERO PUSH2 0xF19 JUMPI PUSH2 0xEEA DUP2 PUSH2 0xDC4 JUMP JUMPDEST PUSH2 0xEF3 DUP5 PUSH2 0xDD6 JUMP JUMPDEST DUP2 ADD PUSH1 0x20 DUP6 LT ISZERO PUSH2 0xF02 JUMPI DUP2 SWAP1 POP JUMPDEST PUSH2 0xF16 PUSH2 0xF0E DUP6 PUSH2 0xDD6 JUMP JUMPDEST DUP4 ADD DUP3 PUSH2 0xEB6 JUMP JUMPDEST POP POP JUMPDEST POP POP POP JUMP JUMPDEST PUSH0 DUP3 DUP3 SHR SWAP1 POP SWAP3 SWAP2 POP POP JUMP JUMPDEST PUSH0 PUSH2 0xF39 PUSH0 NOT DUP5 PUSH1 0x8 MUL PUSH2 0xF1E JUMP JUMPDEST NOT DUP1 DUP4 AND SWAP2 POP POP SWAP3 SWAP2 POP POP JUMP JUMPDEST PUSH0 PUSH2 0xF51 DUP4 DUP4 PUSH2 0xF2A JUMP JUMPDEST SWAP2 POP DUP3 PUSH1 0x2 MUL DUP3 OR SWAP1 POP SWAP3 SWAP2 POP POP JUMP JUMPDEST PUSH2 0xF6A DUP3 PUSH2 0xB4A JUMP JUMPDEST PUSH8 0xFFFFFFFFFFFFFFFF DUP2 GT ISZERO PUSH2 0xF83 JUMPI PUSH2 0xF82 PUSH2 0x84A JUMP JUMPDEST JUMPDEST PUSH2 0xF8D DUP3 SLOAD PUSH2 0xD94 JUMP JUMPDEST PUSH2 0xF98 DUP3 DUP3 DUP6 PUSH2 0xED8 JUMP JUMPDEST PUSH0 PUSH1 0x20 SWAP1 POP PUSH1 0x1F DUP4 GT PUSH1 0x1 DUP2 EQ PUSH2 0xFC9 JUMPI PUSH0 DUP5 ISZERO PUSH2 0xFB7 JUMPI DUP3 DUP8 ADD MLOAD SWAP1 POP JUMPDEST PUSH2 0xFC1 DUP6 DUP3 PUSH2 0xF46 JUMP JUMPDEST DUP7 SSTORE POP PUSH2 0x1028 JUMP JUMPDEST PUSH1 0x1F NOT DUP5 AND PUSH2 0xFD7 DUP7 PUSH2 0xDC4 JUMP JUMPDEST PUSH0 JUMPDEST DUP3 DUP2 LT ISZERO PUSH2 0xFFE JUMPI DUP5 DUP10 ADD MLOAD DUP3 SSTORE PUSH1 0x1 DUP3 ADD SWAP2 POP PUSH1 0x20 DUP6 ADD SWAP5 POP PUSH1 0x20 DUP2 ADD SWAP1 POP PUSH2 0xFD9 JUMP JUMPDEST DUP7 DUP4 LT ISZERO PUSH2 0x101B JUMPI DUP5 DUP10 ADD MLOAD PUSH2 0x1017 PUSH1 0x1F DUP10 AND DUP3 PUSH2 0xF2A JUMP JUMPDEST DUP4 SSTORE POP JUMPDEST PUSH1 0x1 PUSH1 0x2 DUP9 MUL ADD DUP9 SSTORE POP POP POP JUMPDEST POP POP POP POP POP POP JUMP JUMPDEST PUSH32 0x4E487B7100000000000000000000000000000000000000000000000000000000 PUSH0 MSTORE PUSH1 0x11 PUSH1 0x4 MSTORE PUSH1 0x24 PUSH0 REVERT JUMPDEST PUSH0 PUSH2 0x1067 DUP3 PUSH2 0xA03 JUMP JUMPDEST SWAP2 POP PUSH32 0xFFFFFFFFFFFFFFFFFFFFFFFFFFFFFFFFFFFFFFFFFFFFFFFFFFFFFFFFFFFFFFFF DUP3 SUB PUSH2 0x1099 JUMPI PUSH2 0x1098 PUSH2 0x1030 JUMP JUMPDEST JUMPDEST PUSH1 0x1 DUP3 ADD SWAP1 POP SWAP2 SWAP1 POP JUMP JUMPDEST PUSH0 PUSH2 0x10AE DUP3 PUSH2 0xA03 JUMP JUMPDEST SWAP2 POP PUSH2 0x10B9 DUP4 PUSH2 0xA03 JUMP JUMPDEST SWAP3 POP DUP3 DUP3 MUL PUSH2 0x10C7 DUP2 PUSH2 0xA03 JUMP JUMPDEST SWAP2 POP DUP3 DUP3 DIV DUP5 EQ DUP4 ISZERO OR PUSH2 0x10DE JUMPI PUSH2 0x10DD PUSH2 0x1030 JUMP JUMPDEST JUMPDEST POP SWAP3 SWAP2 POP POP JUMP JUMPDEST PUSH32 0x4E487B7100000000000000000000000000000000000000000000000000000000 PUSH0 MSTORE PUSH1 0x12 PUSH1 0x4 MSTORE PUSH1 0x24 PUSH0 REVERT JUMPDEST PUSH0 PUSH2 0x111C DUP3 PUSH2 0xA03 JUMP JUMPDEST SWAP2 POP PUSH2 0x1127 DUP4 PUSH2 0xA03 JUMP JUMPDEST SWAP3 POP DUP3 PUSH2 0x1137 JUMPI PUSH2 0x1136 PUSH2 0x10E5 JUMP JUMPDEST JUMPDEST DUP3 DUP3 DIV SWAP1 POP SWAP3 SWAP2 POP POP JUMP JUMPDEST PUSH32 0x506C656173652070617920746865206F6E6C79203525206F6620796F75722070 PUSH0 DUP3 ADD MSTORE PUSH32 0x726F6475637420636F7374000000000000000000000000000000000000000000 PUSH1 0x20 DUP3 ADD MSTORE POP JUMP JUMPDEST PUSH0 PUSH2 0x119C PUSH1 0x2B DUP4 PUSH2 0xB54 JUMP JUMPDEST SWAP2 POP PUSH2 0x11A7 DUP3 PUSH2 0x1142 JUMP JUMPDEST PUSH1 0x40 DUP3 ADD SWAP1 POP SWAP2 SWAP1 POP JUMP JUMPDEST PUSH0 PUSH1 0x20 DUP3 ADD SWAP1 POP DUP2 DUP2 SUB PUSH0 DUP4 ADD MSTORE PUSH2 0x11C9 DUP2 PUSH2 0x1190 JUMP JUMPDEST SWAP1 POP SWAP2 SWAP1 POP JUMP JUMPDEST PUSH32 0x506C65617365206C6F67696E2066697273740000000000000000000000000000 PUSH0 DUP3 ADD MSTORE POP JUMP JUMPDEST PUSH0 PUSH2 0x1204 PUSH1 0x12 DUP4 PUSH2 0xB54 JUMP JUMPDEST SWAP2 POP PUSH2 0x120F DUP3 PUSH2 0x11D0 JUMP JUMPDEST PUSH1 0x20 DUP3 ADD SWAP1 POP SWAP2 SWAP1 POP JUMP JUMPDEST PUSH0 PUSH1 0x20 DUP3 ADD SWAP1 POP DUP2 DUP2 SUB PUSH0 DUP4 ADD MSTORE PUSH2 0x1231 DUP2 PUSH2 0x11F8 JUMP JUMPDEST SWAP1 POP SWAP2 SWAP1 POP JUMP INVALID LOG2 PUSH5 0x6970667358 0x22 SLT KECCAK256 PUSH15 0xA42D26B98A7954676AFA29D214804 CREATE BALANCE 0xF8 0xD3 SWAP3 LOG1 0xCA 0xDB AND CALLDATALOAD SHR PUSH7 0x89A5650F64736F PUSH13 0x63430008160033000000000000 "
				},
				"gasEstimates": {
					"creation": {
						"codeDepositCost": "943600",
						"executionCost": "54514",
						"totalCost": "998114"
					},
					"external": {
						"get_balance()": "400",
						"login(address,string)": "infinite",
						"no_of_products(uint256)": "infinite",
						"pay_for_product()": "infinite",
						"register(string,string,address,uint256,uint256,uint256)": "infinite",
						"remove_eth()": "infinite",
						"scan_qr()": "4669",
						"sign_in(address,string,string)": "infinite"
					}
				},
				"methodIdentifiers": {
					"get_balance()": "c1cfb99a",
					"login(address,string)": "2f19d50b",
					"no_of_products(uint256)": "6dd7edf1",
					"pay_for_product()": "0ac0b7b9",
					"register(string,string,address,uint256,uint256,uint256)": "50257e1f",
					"remove_eth()": "7ab8d98e",
					"scan_qr()": "57eb8211",
					"sign_in(address,string,string)": "9344d6a7"
				}
			},
			"storageLayout": {
				"storage": [
					{
						"astId": 3,
						"contract": "contracts/4_project.sol:local",
						"label": "owner",
						"offset": 0,
						"slot": "0",
						"type": "t_address"
					},
					{
						"astId": 71,
						"contract": "contracts/4_project.sol:local",
						"label": "no_of_products",
						"offset": 0,
						"slot": "1",
						"type": "t_mapping(t_uint256,t_struct(Product)66_storage)"
					},
					{
						"astId": 74,
						"contract": "contracts/4_project.sol:local",
						"label": "nth_product",
						"offset": 0,
						"slot": "2",
						"type": "t_uint256"
					},
					{
						"astId": 162,
						"contract": "contracts/4_project.sol:local",
						"label": "no_of_users",
						"offset": 0,
						"slot": "3",
						"type": "t_mapping(t_uint256,t_struct(Users)157_storage)"
					},
					{
						"astId": 164,
						"contract": "contracts/4_project.sol:local",
						"label": "nth_user",
						"offset": 0,
						"slot": "4",
						"type": "t_uint256"
					},
					{
						"astId": 167,
						"contract": "contracts/4_project.sol:local",
						"label": "status_of_login",
						"offset": 0,
						"slot": "5",
						"type": "t_bool"
					}
				],
				"types": {
					"t_address": {
						"encoding": "inplace",
						"label": "address",
						"numberOfBytes": "20"
					},
					"t_address_payable": {
						"encoding": "inplace",
						"label": "address payable",
						"numberOfBytes": "20"
					},
					"t_bool": {
						"encoding": "inplace",
						"label": "bool",
						"numberOfBytes": "1"
					},
					"t_mapping(t_uint256,t_struct(Product)66_storage)": {
						"encoding": "mapping",
						"key": "t_uint256",
						"label": "mapping(uint256 => struct local.Product)",
						"numberOfBytes": "32",
						"value": "t_struct(Product)66_storage"
					},
					"t_mapping(t_uint256,t_struct(Users)157_storage)": {
						"encoding": "mapping",
						"key": "t_uint256",
						"label": "mapping(uint256 => struct local.Users)",
						"numberOfBytes": "32",
						"value": "t_struct(Users)157_storage"
					},
					"t_string_storage": {
						"encoding": "bytes",
						"label": "string",
						"numberOfBytes": "32"
					},
					"t_struct(Product)66_storage": {
						"encoding": "inplace",
						"label": "struct local.Product",
						"members": [
							{
								"astId": 51,
								"contract": "contracts/4_project.sol:local",
								"label": "name",
								"offset": 0,
								"slot": "0",
								"type": "t_string_storage"
							},
							{
								"astId": 53,
								"contract": "contracts/4_project.sol:local",
								"label": "name_of_company",
								"offset": 0,
								"slot": "1",
								"type": "t_string_storage"
							},
							{
								"astId": 55,
								"contract": "contracts/4_project.sol:local",
								"label": "company_owner",
								"offset": 0,
								"slot": "2",
								"type": "t_address_payable"
							},
							{
								"astId": 57,
								"contract": "contracts/4_project.sol:local",
								"label": "expiry",
								"offset": 0,
								"slot": "3",
								"type": "t_uint256"
							},
							{
								"astId": 59,
								"contract": "contracts/4_project.sol:local",
								"label": "expiry_status",
								"offset": 0,
								"slot": "4",
								"type": "t_bool"
							},
							{
								"astId": 61,
								"contract": "contracts/4_project.sol:local",
								"label": "uuid",
								"offset": 0,
								"slot": "5",
								"type": "t_uint256"
							},
							{
								"astId": 63,
								"contract": "contracts/4_project.sol:local",
								"label": "cost",
								"offset": 0,
								"slot": "6",
								"type": "t_uint256"
							},
							{
								"astId": 65,
								"contract": "contracts/4_project.sol:local",
								"label": "sold",
								"offset": 0,
								"slot": "7",
								"type": "t_bool"
							}
						],
						"numberOfBytes": "256"
					},
					"t_struct(Users)157_storage": {
						"encoding": "inplace",
						"label": "struct local.Users",
						"members": [
							{
								"astId": 152,
								"contract": "contracts/4_project.sol:local",
								"label": "user_address",
								"offset": 0,
								"slot": "0",
								"type": "t_address"
							},
							{
								"astId": 154,
								"contract": "contracts/4_project.sol:local",
								"label": "name",
								"offset": 0,
								"slot": "1",
								"type": "t_string_storage"
							},
							{
								"astId": 156,
								"contract": "contracts/4_project.sol:local",
								"label": "password",
								"offset": 0,
								"slot": "2",
								"type": "t_string_storage"
							}
						],
						"numberOfBytes": "96"
					},
					"t_uint256": {
						"encoding": "inplace",
						"label": "uint256",
						"numberOfBytes": "32"
					}
				}
			},
			"userdoc": {
				"kind": "user",
				"methods": {},
				"version": 1
			}
		}
	}
}